{
  "_format": "hh-sol-artifact-1",
  "contractName": "FireNFTMarketPlace",
  "sourceName": "contracts/FireNFTMarketPlace.sol",
  "abi": [
    {
      "inputs": [],
      "stateMutability": "nonpayable",
      "type": "constructor"
    },
    {
      "inputs": [
        {
          "internalType": "address",
          "name": "owner",
          "type": "address"
        }
      ],
      "name": "OwnableInvalidOwner",
      "type": "error"
    },
    {
      "inputs": [
        {
          "internalType": "address",
          "name": "account",
          "type": "address"
        }
      ],
      "name": "OwnableUnauthorizedAccount",
      "type": "error"
    },
    {
      "inputs": [],
      "name": "ReentrancyGuardReentrantCall",
      "type": "error"
    },
    {
      "inputs": [
        {
          "internalType": "address",
          "name": "token",
          "type": "address"
        }
      ],
      "name": "SafeERC20FailedOperation",
      "type": "error"
    },
    {
      "anonymous": false,
      "inputs": [
        {
          "indexed": false,
          "internalType": "uint256",
          "name": "itemId",
          "type": "uint256"
        },
        {
          "indexed": false,
          "internalType": "address",
          "name": "owner",
          "type": "address"
        },
        {
          "indexed": false,
          "internalType": "address",
          "name": "nftContract",
          "type": "address"
        },
        {
          "indexed": false,
          "internalType": "uint256",
          "name": "tokenId",
          "type": "uint256"
        },
        {
          "indexed": false,
          "internalType": "string",
          "name": "nftURI",
          "type": "string"
        },
        {
          "indexed": false,
          "internalType": "uint256",
          "name": "price",
          "type": "uint256"
        },
        {
          "indexed": false,
          "internalType": "bool",
          "name": "isListed",
          "type": "bool"
        },
        {
          "indexed": false,
          "internalType": "uint256",
          "name": "timestamp",
          "type": "uint256"
        }
      ],
      "name": "ItemAdded",
      "type": "event"
    },
    {
      "anonymous": false,
      "inputs": [
        {
          "indexed": false,
          "internalType": "uint256",
          "name": "itemId",
          "type": "uint256"
        },
        {
          "indexed": false,
          "internalType": "address",
          "name": "seller",
          "type": "address"
        },
        {
          "indexed": false,
          "internalType": "uint256",
          "name": "price",
          "type": "uint256"
        }
      ],
      "name": "ItemListed",
      "type": "event"
    },
    {
      "anonymous": false,
      "inputs": [
        {
          "indexed": false,
          "internalType": "uint256",
          "name": "itemId",
          "type": "uint256"
        },
        {
          "indexed": false,
          "internalType": "address",
          "name": "buyer",
          "type": "address"
        },
        {
          "indexed": false,
          "internalType": "address",
          "name": "seller",
          "type": "address"
        },
        {
          "indexed": false,
          "internalType": "uint256",
          "name": "price",
          "type": "uint256"
        }
      ],
      "name": "ItemSold",
      "type": "event"
    },
    {
      "anonymous": false,
      "inputs": [
        {
          "indexed": false,
          "internalType": "uint256",
          "name": "itemId",
          "type": "uint256"
        }
      ],
      "name": "ItemUnlisted",
      "type": "event"
    },
    {
      "anonymous": false,
      "inputs": [
        {
          "indexed": true,
          "internalType": "address",
          "name": "previousOwner",
          "type": "address"
        },
        {
          "indexed": true,
          "internalType": "address",
          "name": "newOwner",
          "type": "address"
        }
      ],
      "name": "OwnershipTransferred",
      "type": "event"
    },
    {
      "inputs": [
        {
          "internalType": "address[]",
          "name": "_nftCtrAddrs",
          "type": "address[]"
        },
        {
          "internalType": "uint256[]",
          "name": "_tokenIds",
          "type": "uint256[]"
        }
      ],
      "name": "addMultipleNFTsToMarketPlace",
      "outputs": [],
      "stateMutability": "nonpayable",
      "type": "function"
    },
    {
      "inputs": [
        {
          "internalType": "address",
          "name": "_nftCtrAddr",
          "type": "address"
        },
        {
          "internalType": "uint256",
          "name": "_tokenId",
          "type": "uint256"
        }
      ],
      "name": "addNFTtoMarketPlace",
      "outputs": [],
      "stateMutability": "nonpayable",
      "type": "function"
    },
    {
      "inputs": [
        {
          "internalType": "uint256",
          "name": "_itemNo",
          "type": "uint256"
        },
        {
          "internalType": "address",
          "name": "currencyAddr",
          "type": "address"
        }
      ],
      "name": "buyWithERC20",
      "outputs": [],
      "stateMutability": "nonpayable",
      "type": "function"
    },
    {
      "inputs": [
        {
          "internalType": "uint256",
          "name": "_itemNo",
          "type": "uint256"
        }
      ],
      "name": "buyWithNative",
      "outputs": [],
      "stateMutability": "payable",
      "type": "function"
    },
    {
      "inputs": [],
      "name": "commissionPercent",
      "outputs": [
        {
          "internalType": "uint256",
          "name": "",
          "type": "uint256"
        }
      ],
      "stateMutability": "view",
      "type": "function"
    },
    {
      "inputs": [],
      "name": "getAllNFTs",
      "outputs": [
        {
          "components": [
            {
              "internalType": "uint256",
              "name": "itemId",
              "type": "uint256"
            },
            {
              "internalType": "address payable",
              "name": "creator",
              "type": "address"
            },
            {
              "internalType": "address payable",
              "name": "owner",
              "type": "address"
            },
            {
              "internalType": "address",
              "name": "nftContract",
              "type": "address"
            },
            {
              "internalType": "uint256",
              "name": "tokenId",
              "type": "uint256"
            },
            {
              "internalType": "string",
              "name": "nftURI",
              "type": "string"
            },
            {
              "internalType": "uint256",
              "name": "price",
              "type": "uint256"
            },
            {
              "internalType": "bool",
              "name": "isListed",
              "type": "bool"
            },
            {
              "internalType": "uint256",
              "name": "timestamp",
              "type": "uint256"
            },
            {
              "internalType": "address[]",
              "name": "buyers",
              "type": "address[]"
            }
          ],
          "internalType": "struct FireNFTMarketPlace.NFTData[]",
          "name": "",
          "type": "tuple[]"
        }
      ],
      "stateMutability": "view",
      "type": "function"
    },
    {
      "inputs": [
        {
          "internalType": "address",
          "name": "contractAddr",
          "type": "address"
        }
      ],
      "name": "getAllNFTsByContract",
      "outputs": [
        {
          "components": [
            {
              "internalType": "uint256",
              "name": "itemId",
              "type": "uint256"
            },
            {
              "internalType": "address payable",
              "name": "creator",
              "type": "address"
            },
            {
              "internalType": "address payable",
              "name": "owner",
              "type": "address"
            },
            {
              "internalType": "address",
              "name": "nftContract",
              "type": "address"
            },
            {
              "internalType": "uint256",
              "name": "tokenId",
              "type": "uint256"
            },
            {
              "internalType": "string",
              "name": "nftURI",
              "type": "string"
            },
            {
              "internalType": "uint256",
              "name": "price",
              "type": "uint256"
            },
            {
              "internalType": "bool",
              "name": "isListed",
              "type": "bool"
            },
            {
              "internalType": "uint256",
              "name": "timestamp",
              "type": "uint256"
            },
            {
              "internalType": "address[]",
              "name": "buyers",
              "type": "address[]"
            }
          ],
          "internalType": "struct FireNFTMarketPlace.NFTData[]",
          "name": "",
          "type": "tuple[]"
        }
      ],
      "stateMutability": "view",
      "type": "function"
    },
    {
      "inputs": [
        {
          "internalType": "address",
          "name": "accountAddr",
          "type": "address"
        }
      ],
      "name": "getAllNFTsByCreator",
      "outputs": [
        {
          "components": [
            {
              "internalType": "uint256",
              "name": "itemId",
              "type": "uint256"
            },
            {
              "internalType": "address payable",
              "name": "creator",
              "type": "address"
            },
            {
              "internalType": "address payable",
              "name": "owner",
              "type": "address"
            },
            {
              "internalType": "address",
              "name": "nftContract",
              "type": "address"
            },
            {
              "internalType": "uint256",
              "name": "tokenId",
              "type": "uint256"
            },
            {
              "internalType": "string",
              "name": "nftURI",
              "type": "string"
            },
            {
              "internalType": "uint256",
              "name": "price",
              "type": "uint256"
            },
            {
              "internalType": "bool",
              "name": "isListed",
              "type": "bool"
            },
            {
              "internalType": "uint256",
              "name": "timestamp",
              "type": "uint256"
            },
            {
              "internalType": "address[]",
              "name": "buyers",
              "type": "address[]"
            }
          ],
          "internalType": "struct FireNFTMarketPlace.NFTData[]",
          "name": "",
          "type": "tuple[]"
        }
      ],
      "stateMutability": "view",
      "type": "function"
    },
    {
      "inputs": [
        {
          "internalType": "address",
          "name": "accountAddr",
          "type": "address"
        }
      ],
      "name": "getAllNFTsByOwner",
      "outputs": [
        {
          "components": [
            {
              "internalType": "uint256",
              "name": "itemId",
              "type": "uint256"
            },
            {
              "internalType": "address payable",
              "name": "creator",
              "type": "address"
            },
            {
              "internalType": "address payable",
              "name": "owner",
              "type": "address"
            },
            {
              "internalType": "address",
              "name": "nftContract",
              "type": "address"
            },
            {
              "internalType": "uint256",
              "name": "tokenId",
              "type": "uint256"
            },
            {
              "internalType": "string",
              "name": "nftURI",
              "type": "string"
            },
            {
              "internalType": "uint256",
              "name": "price",
              "type": "uint256"
            },
            {
              "internalType": "bool",
              "name": "isListed",
              "type": "bool"
            },
            {
              "internalType": "uint256",
              "name": "timestamp",
              "type": "uint256"
            },
            {
              "internalType": "address[]",
              "name": "buyers",
              "type": "address[]"
            }
          ],
          "internalType": "struct FireNFTMarketPlace.NFTData[]",
          "name": "",
          "type": "tuple[]"
        }
      ],
      "stateMutability": "view",
      "type": "function"
    },
    {
      "inputs": [],
      "name": "getLatestNFT",
      "outputs": [
        {
          "components": [
            {
              "internalType": "uint256",
              "name": "itemId",
              "type": "uint256"
            },
            {
              "internalType": "address payable",
              "name": "creator",
              "type": "address"
            },
            {
              "internalType": "address payable",
              "name": "owner",
              "type": "address"
            },
            {
              "internalType": "address",
              "name": "nftContract",
              "type": "address"
            },
            {
              "internalType": "uint256",
              "name": "tokenId",
              "type": "uint256"
            },
            {
              "internalType": "string",
              "name": "nftURI",
              "type": "string"
            },
            {
              "internalType": "uint256",
              "name": "price",
              "type": "uint256"
            },
            {
              "internalType": "bool",
              "name": "isListed",
              "type": "bool"
            },
            {
              "internalType": "uint256",
              "name": "timestamp",
              "type": "uint256"
            },
            {
              "internalType": "address[]",
              "name": "buyers",
              "type": "address[]"
            }
          ],
          "internalType": "struct FireNFTMarketPlace.NFTData",
          "name": "",
          "type": "tuple"
        }
      ],
      "stateMutability": "view",
      "type": "function"
    },
    {
      "inputs": [
        {
          "internalType": "uint256",
          "name": "_itemNo",
          "type": "uint256"
        }
      ],
      "name": "getNFT",
      "outputs": [
        {
          "components": [
            {
              "internalType": "uint256",
              "name": "itemId",
              "type": "uint256"
            },
            {
              "internalType": "address payable",
              "name": "creator",
              "type": "address"
            },
            {
              "internalType": "address payable",
              "name": "owner",
              "type": "address"
            },
            {
              "internalType": "address",
              "name": "nftContract",
              "type": "address"
            },
            {
              "internalType": "uint256",
              "name": "tokenId",
              "type": "uint256"
            },
            {
              "internalType": "string",
              "name": "nftURI",
              "type": "string"
            },
            {
              "internalType": "uint256",
              "name": "price",
              "type": "uint256"
            },
            {
              "internalType": "bool",
              "name": "isListed",
              "type": "bool"
            },
            {
              "internalType": "uint256",
              "name": "timestamp",
              "type": "uint256"
            },
            {
              "internalType": "address[]",
              "name": "buyers",
              "type": "address[]"
            }
          ],
          "internalType": "struct FireNFTMarketPlace.NFTData",
          "name": "",
          "type": "tuple"
        }
      ],
      "stateMutability": "view",
      "type": "function"
    },
    {
      "inputs": [
        {
          "internalType": "address",
          "name": "contractAddr",
          "type": "address"
        },
        {
          "internalType": "uint256",
          "name": "tokenId",
          "type": "uint256"
        }
      ],
      "name": "getNFTByContract",
      "outputs": [
        {
          "components": [
            {
              "internalType": "uint256",
              "name": "itemId",
              "type": "uint256"
            },
            {
              "internalType": "address payable",
              "name": "creator",
              "type": "address"
            },
            {
              "internalType": "address payable",
              "name": "owner",
              "type": "address"
            },
            {
              "internalType": "address",
              "name": "nftContract",
              "type": "address"
            },
            {
              "internalType": "uint256",
              "name": "tokenId",
              "type": "uint256"
            },
            {
              "internalType": "string",
              "name": "nftURI",
              "type": "string"
            },
            {
              "internalType": "uint256",
              "name": "price",
              "type": "uint256"
            },
            {
              "internalType": "bool",
              "name": "isListed",
              "type": "bool"
            },
            {
              "internalType": "uint256",
              "name": "timestamp",
              "type": "uint256"
            },
            {
              "internalType": "address[]",
              "name": "buyers",
              "type": "address[]"
            }
          ],
          "internalType": "struct FireNFTMarketPlace.NFTData",
          "name": "",
          "type": "tuple"
        }
      ],
      "stateMutability": "view",
      "type": "function"
    },
    {
      "inputs": [],
      "name": "getNFTCount",
      "outputs": [
        {
          "internalType": "uint256",
          "name": "",
          "type": "uint256"
        }
      ],
      "stateMutability": "view",
      "type": "function"
    },
    {
      "inputs": [],
      "name": "itemSold",
      "outputs": [
        {
          "internalType": "uint256",
          "name": "",
          "type": "uint256"
        }
      ],
      "stateMutability": "view",
      "type": "function"
    },
    {
      "inputs": [
        {
          "internalType": "uint256",
          "name": "_itemNo",
          "type": "uint256"
        },
        {
          "internalType": "uint256",
          "name": "_sp",
          "type": "uint256"
        },
        {
          "internalType": "address",
          "name": "currencyAddr",
          "type": "address"
        }
      ],
      "name": "listNFTWithERC20",
      "outputs": [],
      "stateMutability": "nonpayable",
      "type": "function"
    },
    {
      "inputs": [
        {
          "internalType": "uint256",
          "name": "_itemNo",
          "type": "uint256"
        },
        {
          "internalType": "uint256",
          "name": "_sellingPrice",
          "type": "uint256"
        }
      ],
      "name": "listNFTWithNative",
      "outputs": [],
      "stateMutability": "payable",
      "type": "function"
    },
    {
      "inputs": [],
      "name": "listingPrice",
      "outputs": [
        {
          "internalType": "uint256",
          "name": "",
          "type": "uint256"
        }
      ],
      "stateMutability": "view",
      "type": "function"
    },
    {
      "inputs": [],
      "name": "owner",
      "outputs": [
        {
          "internalType": "address",
          "name": "",
          "type": "address"
        }
      ],
      "stateMutability": "view",
      "type": "function"
    },
    {
      "inputs": [],
      "name": "renounceOwnership",
      "outputs": [],
      "stateMutability": "nonpayable",
      "type": "function"
    },
    {
      "inputs": [
        {
          "internalType": "address",
          "name": "newOwner",
          "type": "address"
        }
      ],
      "name": "transferOwnership",
      "outputs": [],
      "stateMutability": "nonpayable",
      "type": "function"
    },
    {
      "inputs": [
        {
          "internalType": "uint256",
          "name": "_itemNo",
          "type": "uint256"
        }
      ],
      "name": "unlistNFT",
      "outputs": [],
      "stateMutability": "nonpayable",
      "type": "function"
    },
    {
      "inputs": [
        {
          "internalType": "uint256",
          "name": "newCommissionPercent",
          "type": "uint256"
        }
      ],
      "name": "updateCommissionPercent",
      "outputs": [],
      "stateMutability": "nonpayable",
      "type": "function"
    },
    {
      "inputs": [
        {
          "internalType": "uint256",
          "name": "newPrice",
          "type": "uint256"
        }
      ],
      "name": "updateListingPrice",
      "outputs": [],
      "stateMutability": "nonpayable",
      "type": "function"
    },
    {
      "inputs": [],
      "name": "withdrawERCFunds",
      "outputs": [
        {
          "internalType": "bool",
          "name": "",
          "type": "bool"
        }
      ],
      "stateMutability": "nonpayable",
      "type": "function"
    },
    {
      "inputs": [
        {
          "internalType": "address payable",
          "name": "addr",
          "type": "address"
        }
      ],
      "name": "withdrawNativeFunds",
      "outputs": [],
      "stateMutability": "nonpayable",
      "type": "function"
    }
  ],
  "bytecode": "0x60806040526608e1bc9bf040006005553480156200001c57600080fd5b5033600073ffffffffffffffffffffffffffffffffffffffff168173ffffffffffffffffffffffffffffffffffffffff1603620000935760006040517f1e4fbdf70000000000000000000000000000000000000000000000000000000081526004016200008a9190620001bb565b60405180910390fd5b620000a481620000b260201b60201c565b5060018081905550620001d8565b60008060009054906101000a900473ffffffffffffffffffffffffffffffffffffffff169050816000806101000a81548173ffffffffffffffffffffffffffffffffffffffff021916908373ffffffffffffffffffffffffffffffffffffffff1602179055508173ffffffffffffffffffffffffffffffffffffffff168173ffffffffffffffffffffffffffffffffffffffff167f8be0079c531659141344cd1fd0a4f28419497f9722a3daafe3b4186f6b6457e060405160405180910390a35050565b600073ffffffffffffffffffffffffffffffffffffffff82169050919050565b6000620001a38262000176565b9050919050565b620001b58162000196565b82525050565b6000602082019050620001d26000830184620001aa565b92915050565b615ce080620001e86000396000f3fe6080604052600436106101665760003560e01c806377d3550b116100d1578063d784dc8c1161008a578063eab1ec5711610064578063eab1ec571461051d578063ec1f581114610546578063f2fde38b1461056f578063f89c42eb1461059857610166565b8063d784dc8c1461049e578063dec4ef04146104c9578063e0391b09146104f257610166565b806377d3550b1461038e5780637b75873d146103b95780638da5cb5b146103f6578063961f094414610421578063ae677aa31461044a578063c78f19f91461047357610166565b80635ab53112116101235780635ab53112146102805780635d2e1157146102ab5780635e379797146102e8578063672ffadb146103115780636d2736101461034e578063715018a61461037757610166565b806328788c521461016b57806331ad36ab1461019457806334580f28146101b0578063438e897a146101ed5780635427963714610218578063576f7ea714610243575b600080fd5b34801561017757600080fd5b50610192600480360381019061018d9190614410565b6105b4565b005b6101ae60048036038101906101a99190614450565b610a0e565b005b3480156101bc57600080fd5b506101d760048036038101906101d2919061447d565b611044565b6040516101e491906147e6565b60405180910390f35b3480156101f957600080fd5b50610202611485565b60405161020f9190614817565b60405180910390f35b34801561022457600080fd5b5061022d61148b565b60405161023a9190614817565b60405180910390f35b34801561024f57600080fd5b5061026a60048036038101906102659190614450565b611495565b6040516102779190614913565b60405180910390f35b34801561028c57600080fd5b5061029561177b565b6040516102a29190614944565b60405180910390f35b3480156102b757600080fd5b506102d260048036038101906102cd919061447d565b611872565b6040516102df91906147e6565b60405180910390f35b3480156102f457600080fd5b5061030f600480360381019061030a9190614450565b611cb3565b005b34801561031d57600080fd5b506103386004803603810190610333919061447d565b611cc5565b60405161034591906147e6565b60405180910390f35b34801561035a57600080fd5b506103756004803603810190610370919061495f565b612106565b005b34801561038357600080fd5b5061038c6124a0565b005b34801561039a57600080fd5b506103a36124b4565b6040516103b09190614817565b60405180910390f35b3480156103c557600080fd5b506103e060048036038101906103db9190614410565b6124ba565b6040516103ed9190614913565b60405180910390f35b34801561040257600080fd5b5061040b61283e565b60405161041891906149c1565b60405180910390f35b34801561042d57600080fd5b5061044860048036038101906104439190614450565b612867565b005b34801561045657600080fd5b50610471600480360381019061046c9190614450565b612abe565b005b34801561047f57600080fd5b50610488612ad0565b6040516104959190614817565b60405180910390f35b3480156104aa57600080fd5b506104b3612ad6565b6040516104c09190614913565b60405180910390f35b3480156104d557600080fd5b506104f060048036038101906104eb9190614a97565b612dae565b005b3480156104fe57600080fd5b50610507612e62565b60405161051491906147e6565b60405180910390f35b34801561052957600080fd5b50610544600480360381019061053f9190614b18565b613197565b005b34801561055257600080fd5b5061056d60048036038101906105689190614b84565b613869565b005b34801561057b57600080fd5b506105966004803603810190610591919061447d565b6138fe565b005b6105b260048036038101906105ad9190614bb1565b613984565b005b6105be8282613cf2565b156105fe576040517f08c379a00000000000000000000000000000000000000000000000000000000081526004016105f590614c4e565b60405180910390fd5b3373ffffffffffffffffffffffffffffffffffffffff168273ffffffffffffffffffffffffffffffffffffffff16636352211e836040518263ffffffff1660e01b815260040161064e9190614817565b602060405180830381865afa15801561066b573d6000803e3d6000fd5b505050506040513d601f19601f8201168201806040525081019061068f9190614c83565b73ffffffffffffffffffffffffffffffffffffffff16146106e5576040517f08c379a00000000000000000000000000000000000000000000000000000000081526004016106dc90614cfc565b60405180910390fd5b600460008154809291906106f890614d4b565b919050555060008273ffffffffffffffffffffffffffffffffffffffff1663c87b56dd836040518263ffffffff1660e01b81526004016107389190614817565b600060405180830381865afa158015610755573d6000803e3d6000fd5b505050506040513d6000823e3d601f19601f8201168201806040525081019061077e9190614eb4565b905060405180610140016040528060045481526020013373ffffffffffffffffffffffffffffffffffffffff1681526020013373ffffffffffffffffffffffffffffffffffffffff1681526020018473ffffffffffffffffffffffffffffffffffffffff16815260200183815260200182815260200160008152602001600015158152602001428152602001600067ffffffffffffffff81111561082557610824614d98565b5b6040519080825280602002602001820160405280156108535781602001602082028036833780820191505090505b508152506008600060045481526020019081526020016000206000820151816000015560208201518160010160006101000a81548173ffffffffffffffffffffffffffffffffffffffff021916908373ffffffffffffffffffffffffffffffffffffffff16021790555060408201518160020160006101000a81548173ffffffffffffffffffffffffffffffffffffffff021916908373ffffffffffffffffffffffffffffffffffffffff16021790555060608201518160030160006101000a81548173ffffffffffffffffffffffffffffffffffffffff021916908373ffffffffffffffffffffffffffffffffffffffff1602179055506080820151816004015560a082015181600501908161096a9190615109565b5060c0820151816006015560e08201518160070160006101000a81548160ff02191690831515021790555061010082015181600801556101208201518160090190805190602001906109bd92919061422a565b509050507f61220ef1e4cbbf50e49e13500406b65aba59b7f9f671dd954eabb544a371d9d66004543385858560008042604051610a0198979695949392919061524f565b60405180910390a1505050565b610a16613db7565b80600081118015610a2957506004548111155b610a68576040517f08c379a0000000000000000000000000000000000000000000000000000000008152600401610a5f90615320565b60405180910390fd5b600060086000848152602001908152602001600020905060008160030160009054906101000a900473ffffffffffffffffffffffffffffffffffffffff169050600115158260070160009054906101000a900460ff16151514610b00576040517f08c379a0000000000000000000000000000000000000000000000000000000008152600401610af79061538c565b60405180910390fd5b8160060154341015610b47576040517f08c379a0000000000000000000000000000000000000000000000000000000008152600401610b3e9061541e565b60405180910390fd5b3073ffffffffffffffffffffffffffffffffffffffff168173ffffffffffffffffffffffffffffffffffffffff1663081812fc84600401546040518263ffffffff1660e01b8152600401610b9b9190614817565b602060405180830381865afa158015610bb8573d6000803e3d6000fd5b505050506040513d601f19601f82011682018060405250810190610bdc9190614c83565b73ffffffffffffffffffffffffffffffffffffffff1614610c32576040517f08c379a0000000000000000000000000000000000000000000000000000000008152600401610c29906154b0565b60405180910390fd5b6000606460025434610c4491906154d0565b610c4e9190615541565b90506000808373ffffffffffffffffffffffffffffffffffffffff16632a55205a866004015487600601546040518363ffffffff1660e01b8152600401610c96929190615572565b6040805180830381865afa158015610cb2573d6000803e3d6000fd5b505050506040513d601f19601f82011682018060405250810190610cd691906155b0565b915091508173ffffffffffffffffffffffffffffffffffffffff166108fc829081150290604051600060405180830381858888f19350505050158015610d20573d6000803e3d6000fd5b508373ffffffffffffffffffffffffffffffffffffffff16636352211e86600401546040518263ffffffff1660e01b8152600401610d5e9190614817565b602060405180830381865afa158015610d7b573d6000803e3d6000fd5b505050506040513d601f19601f82011682018060405250810190610d9f9190614c83565b73ffffffffffffffffffffffffffffffffffffffff166108fc828534610dc591906155f0565b610dcf91906155f0565b9081150290604051600060405180830381858888f19350505050158015610dfa573d6000803e3d6000fd5b508373ffffffffffffffffffffffffffffffffffffffff166342842e0e8573ffffffffffffffffffffffffffffffffffffffff16636352211e88600401546040518263ffffffff1660e01b8152600401610e549190614817565b602060405180830381865afa158015610e71573d6000803e3d6000fd5b505050506040513d601f19601f82011682018060405250810190610e959190614c83565b3388600401546040518463ffffffff1660e01b8152600401610eb993929190615624565b600060405180830381600087803b158015610ed357600080fd5b505af1158015610ee7573d6000803e3d6000fd5b505050506000856006018190555060008560070160006101000a81548160ff021916908315150217905550338560020160006101000a81548173ffffffffffffffffffffffffffffffffffffffff021916908373ffffffffffffffffffffffffffffffffffffffff16021790555084600901339080600181540180825580915050600190039060005260206000200160009091909190916101000a81548173ffffffffffffffffffffffffffffffffffffffff021916908373ffffffffffffffffffffffffffffffffffffffff16021790555060036000815480929190610fcd90614d4b565b91905055507f04ddd54c6b746e69ba87f862311f7670bd1d7276846778ac81cd38747b27a74687338760020160009054906101000a900473ffffffffffffffffffffffffffffffffffffffff163460405161102b94939291906156b0565b60405180910390a1505050505050611041613dfd565b50565b6060600080600190505b60045481116110e2578373ffffffffffffffffffffffffffffffffffffffff166008600083815260200190815260200160002060030160009054906101000a900473ffffffffffffffffffffffffffffffffffffffff1673ffffffffffffffffffffffffffffffffffffffff16036110cf5781806110cb90614d4b565b9250505b80806110da90614d4b565b91505061104e565b5060008167ffffffffffffffff8111156110ff576110fe614d98565b5b60405190808252806020026020018201604052801561113857816020015b6111256142b4565b81526020019060019003908161111d5790505b509050600080600190505b6004548111611479578573ffffffffffffffffffffffffffffffffffffffff166008600083815260200190815260200160002060030160009054906101000a900473ffffffffffffffffffffffffffffffffffffffff1673ffffffffffffffffffffffffffffffffffffffff1603611466576008600082815260200190815260200160002060405180610140016040529081600082015481526020016001820160009054906101000a900473ffffffffffffffffffffffffffffffffffffffff1673ffffffffffffffffffffffffffffffffffffffff1673ffffffffffffffffffffffffffffffffffffffff1681526020016002820160009054906101000a900473ffffffffffffffffffffffffffffffffffffffff1673ffffffffffffffffffffffffffffffffffffffff1673ffffffffffffffffffffffffffffffffffffffff1681526020016003820160009054906101000a900473ffffffffffffffffffffffffffffffffffffffff1673ffffffffffffffffffffffffffffffffffffffff1673ffffffffffffffffffffffffffffffffffffffff168152602001600482015481526020016005820180546112fa90614f2c565b80601f016020809104026020016040519081016040528092919081815260200182805461132690614f2c565b80156113735780601f1061134857610100808354040283529160200191611373565b820191906000526020600020905b81548152906001019060200180831161135657829003601f168201915b50505050508152602001600682015481526020016007820160009054906101000a900460ff16151515158152602001600882015481526020016009820180548060200260200160405190810160405280929190818152602001828054801561143057602002820191906000526020600020905b8160009054906101000a900473ffffffffffffffffffffffffffffffffffffffff1673ffffffffffffffffffffffffffffffffffffffff16815260200190600101908083116113e6575b50505050508152505083838151811061144c5761144b6156f5565b5b6020026020010181905250818061146290614d4b565b9250505b808061147190614d4b565b915050611143565b50819350505050919050565b60035481565b6000600454905090565b61149d6142b4565b816000811180156114b057506004548111155b6114ef576040517f08c379a00000000000000000000000000000000000000000000000000000000081526004016114e690615320565b60405180910390fd5b6008600084815260200190815260200160002060405180610140016040529081600082015481526020016001820160009054906101000a900473ffffffffffffffffffffffffffffffffffffffff1673ffffffffffffffffffffffffffffffffffffffff1673ffffffffffffffffffffffffffffffffffffffff1681526020016002820160009054906101000a900473ffffffffffffffffffffffffffffffffffffffff1673ffffffffffffffffffffffffffffffffffffffff1673ffffffffffffffffffffffffffffffffffffffff1681526020016003820160009054906101000a900473ffffffffffffffffffffffffffffffffffffffff1673ffffffffffffffffffffffffffffffffffffffff1673ffffffffffffffffffffffffffffffffffffffff1681526020016004820154815260200160058201805461163490614f2c565b80601f016020809104026020016040519081016040528092919081815260200182805461166090614f2c565b80156116ad5780601f10611682576101008083540402835291602001916116ad565b820191906000526020600020905b81548152906001019060200180831161169057829003601f168201915b50505050508152602001600682015481526020016007820160009054906101000a900460ff16151515158152602001600882015481526020016009820180548060200260200160405190810160405280929190818152602001828054801561176a57602002820191906000526020600020905b8160009054906101000a900473ffffffffffffffffffffffffffffffffffffffff1673ffffffffffffffffffffffffffffffffffffffff1681526020019060010190808311611720575b505050505081525050915050919050565b6000611785613e06565b60005b6117926006613e8d565b81101561186a5760006117af826006613ea290919063ffffffff16565b905061185c6117bc61283e565b8273ffffffffffffffffffffffffffffffffffffffff166370a08231306040518263ffffffff1660e01b81526004016117f591906149c1565b602060405180830381865afa158015611812573d6000803e3d6000fd5b505050506040513d601f19601f820116820180604052508101906118369190615724565b8373ffffffffffffffffffffffffffffffffffffffff16613ebc9092919063ffffffff16565b508080600101915050611788565b506001905090565b6060600080600190505b6004548111611910578373ffffffffffffffffffffffffffffffffffffffff166008600083815260200190815260200160002060020160009054906101000a900473ffffffffffffffffffffffffffffffffffffffff1673ffffffffffffffffffffffffffffffffffffffff16036118fd5781806118f990614d4b565b9250505b808061190890614d4b565b91505061187c565b5060008167ffffffffffffffff81111561192d5761192c614d98565b5b60405190808252806020026020018201604052801561196657816020015b6119536142b4565b81526020019060019003908161194b5790505b509050600080600190505b6004548111611ca7578573ffffffffffffffffffffffffffffffffffffffff166008600083815260200190815260200160002060020160009054906101000a900473ffffffffffffffffffffffffffffffffffffffff1673ffffffffffffffffffffffffffffffffffffffff1603611c94576008600082815260200190815260200160002060405180610140016040529081600082015481526020016001820160009054906101000a900473ffffffffffffffffffffffffffffffffffffffff1673ffffffffffffffffffffffffffffffffffffffff1673ffffffffffffffffffffffffffffffffffffffff1681526020016002820160009054906101000a900473ffffffffffffffffffffffffffffffffffffffff1673ffffffffffffffffffffffffffffffffffffffff1673ffffffffffffffffffffffffffffffffffffffff1681526020016003820160009054906101000a900473ffffffffffffffffffffffffffffffffffffffff1673ffffffffffffffffffffffffffffffffffffffff1673ffffffffffffffffffffffffffffffffffffffff16815260200160048201548152602001600582018054611b2890614f2c565b80601f0160208091040260200160405190810160405280929190818152602001828054611b5490614f2c565b8015611ba15780601f10611b7657610100808354040283529160200191611ba1565b820191906000526020600020905b815481529060010190602001808311611b8457829003601f168201915b50505050508152602001600682015481526020016007820160009054906101000a900460ff161515151581526020016008820154815260200160098201805480602002602001604051908101604052809291908181526020018280548015611c5e57602002820191906000526020600020905b8160009054906101000a900473ffffffffffffffffffffffffffffffffffffffff1673ffffffffffffffffffffffffffffffffffffffff1681526020019060010190808311611c14575b505050505081525050838381518110611c7a57611c796156f5565b5b60200260200101819052508180611c9090614d4b565b9250505b8080611c9f90614d4b565b915050611971565b50819350505050919050565b611cbb613e06565b8060028190555050565b6060600080600190505b6004548111611d63578373ffffffffffffffffffffffffffffffffffffffff166008600083815260200190815260200160002060010160009054906101000a900473ffffffffffffffffffffffffffffffffffffffff1673ffffffffffffffffffffffffffffffffffffffff1603611d50578180611d4c90614d4b565b9250505b8080611d5b90614d4b565b915050611ccf565b5060008167ffffffffffffffff811115611d8057611d7f614d98565b5b604051908082528060200260200182016040528015611db957816020015b611da66142b4565b815260200190600190039081611d9e5790505b509050600080600190505b60045481116120fa578573ffffffffffffffffffffffffffffffffffffffff166008600083815260200190815260200160002060010160009054906101000a900473ffffffffffffffffffffffffffffffffffffffff1673ffffffffffffffffffffffffffffffffffffffff16036120e7576008600082815260200190815260200160002060405180610140016040529081600082015481526020016001820160009054906101000a900473ffffffffffffffffffffffffffffffffffffffff1673ffffffffffffffffffffffffffffffffffffffff1673ffffffffffffffffffffffffffffffffffffffff1681526020016002820160009054906101000a900473ffffffffffffffffffffffffffffffffffffffff1673ffffffffffffffffffffffffffffffffffffffff1673ffffffffffffffffffffffffffffffffffffffff1681526020016003820160009054906101000a900473ffffffffffffffffffffffffffffffffffffffff1673ffffffffffffffffffffffffffffffffffffffff1673ffffffffffffffffffffffffffffffffffffffff16815260200160048201548152602001600582018054611f7b90614f2c565b80601f0160208091040260200160405190810160405280929190818152602001828054611fa790614f2c565b8015611ff45780601f10611fc957610100808354040283529160200191611ff4565b820191906000526020600020905b815481529060010190602001808311611fd757829003601f168201915b50505050508152602001600682015481526020016007820160009054906101000a900460ff1615151515815260200160088201548152602001600982018054806020026020016040519081016040528092919081815260200182805480156120b157602002820191906000526020600020905b8160009054906101000a900473ffffffffffffffffffffffffffffffffffffffff1673ffffffffffffffffffffffffffffffffffffffff1681526020019060010190808311612067575b5050505050815250508383815181106120cd576120cc6156f5565b5b602002602001018190525081806120e390614d4b565b9250505b80806120f290614d4b565b915050611dc4565b50819350505050919050565b8260008111801561211957506004548111155b612158576040517f08c379a000000000000000000000000000000000000000000000000000000000815260040161214f90615320565b60405180910390fd5b60006008600086815260200190815260200160002090503373ffffffffffffffffffffffffffffffffffffffff168160030160009054906101000a900473ffffffffffffffffffffffffffffffffffffffff1673ffffffffffffffffffffffffffffffffffffffff16636352211e83600401546040518263ffffffff1660e01b81526004016121e79190614817565b602060405180830381865afa158015612204573d6000803e3d6000fd5b505050506040513d601f19601f820116820180604052508101906122289190614c83565b73ffffffffffffffffffffffffffffffffffffffff161461227e576040517f08c379a0000000000000000000000000000000000000000000000000000000008152600401612275906157c3565b60405180910390fd5b600015156008600087815260200190815260200160002060070160009054906101000a900460ff161515146122e8576040517f08c379a00000000000000000000000000000000000000000000000000000000081526004016122df9061582f565b60405180910390fd5b6005548373ffffffffffffffffffffffffffffffffffffffff1663dd62ed3e33306040518363ffffffff1660e01b815260040161232692919061584f565b602060405180830381865afa158015612343573d6000803e3d6000fd5b505050506040513d601f19601f820116820180604052508101906123679190615724565b10156123a8576040517f08c379a000000000000000000000000000000000000000000000000000000000815260040161239f906158ea565b60405180910390fd5b6123d733306005548673ffffffffffffffffffffffffffffffffffffffff16613f3b909392919063ffffffff16565b6123eb836006613fbd90919063ffffffff16565b5083816006018190555060018160070160006101000a81548160ff021916908315150217905550338160020160006101000a81548173ffffffffffffffffffffffffffffffffffffffff021916908373ffffffffffffffffffffffffffffffffffffffff1602179055504281600801819055507fc93edc6ee14cd6c0c2842099adfa8953b237dbdad304ba28e96dce8a7f2a828c8533866040516124919392919061590a565b60405180910390a15050505050565b6124a8613e06565b6124b26000613fed565b565b60025481565b6124c26142b4565b6000600190505b60045481116127fc578373ffffffffffffffffffffffffffffffffffffffff166008600083815260200190815260200160002060030160009054906101000a900473ffffffffffffffffffffffffffffffffffffffff1673ffffffffffffffffffffffffffffffffffffffff161480156125585750826008600083815260200190815260200160002060040154145b156127e9576008600082815260200190815260200160002060405180610140016040529081600082015481526020016001820160009054906101000a900473ffffffffffffffffffffffffffffffffffffffff1673ffffffffffffffffffffffffffffffffffffffff1673ffffffffffffffffffffffffffffffffffffffff1681526020016002820160009054906101000a900473ffffffffffffffffffffffffffffffffffffffff1673ffffffffffffffffffffffffffffffffffffffff1673ffffffffffffffffffffffffffffffffffffffff1681526020016003820160009054906101000a900473ffffffffffffffffffffffffffffffffffffffff1673ffffffffffffffffffffffffffffffffffffffff1673ffffffffffffffffffffffffffffffffffffffff168152602001600482015481526020016005820180546126a290614f2c565b80601f01602080910402602001604051908101604052809291908181526020018280546126ce90614f2c565b801561271b5780601f106126f05761010080835404028352916020019161271b565b820191906000526020600020905b8154815290600101906020018083116126fe57829003601f168201915b50505050508152602001600682015481526020016007820160009054906101000a900460ff1615151515815260200160088201548152602001600982018054806020026020016040519081016040528092919081815260200182805480156127d857602002820191906000526020600020905b8160009054906101000a900473ffffffffffffffffffffffffffffffffffffffff1673ffffffffffffffffffffffffffffffffffffffff168152602001906001019080831161278e575b505050505081525050915050612838565b80806127f490614d4b565b9150506124c9565b506040517f08c379a000000000000000000000000000000000000000000000000000000000815260040161282f9061598d565b60405180910390fd5b92915050565b60008060009054906101000a900473ffffffffffffffffffffffffffffffffffffffff16905090565b8060008111801561287a57506004548111155b6128b9576040517f08c379a00000000000000000000000000000000000000000000000000000000081526004016128b090615320565b60405180910390fd5b60006008600084815260200190815260200160002090503373ffffffffffffffffffffffffffffffffffffffff168160030160009054906101000a900473ffffffffffffffffffffffffffffffffffffffff1673ffffffffffffffffffffffffffffffffffffffff16636352211e83600401546040518263ffffffff1660e01b81526004016129489190614817565b602060405180830381865afa158015612965573d6000803e3d6000fd5b505050506040513d601f19601f820116820180604052508101906129899190614c83565b73ffffffffffffffffffffffffffffffffffffffff16146129df576040517f08c379a00000000000000000000000000000000000000000000000000000000081526004016129d6906157c3565b60405180910390fd5b600115156008600085815260200190815260200160002060070160009054906101000a900460ff16151514612a49576040517f08c379a0000000000000000000000000000000000000000000000000000000008152600401612a409061538c565b60405180910390fd5b6000816006018190555060006008600085815260200190815260200160002060070160006101000a81548160ff0219169083151502179055507f16f0173e2518aa26a59552a270f34bcac34876cdea9d6189ae711c4b52aaa4d883604051612ab19190614817565b60405180910390a1505050565b612ac6613e06565b8060058190555050565b60055481565b612ade6142b4565b600060045411612b23576040517f08c379a0000000000000000000000000000000000000000000000000000000008152600401612b1a906159f9565b60405180910390fd5b60086000600454815260200190815260200160002060405180610140016040529081600082015481526020016001820160009054906101000a900473ffffffffffffffffffffffffffffffffffffffff1673ffffffffffffffffffffffffffffffffffffffff1673ffffffffffffffffffffffffffffffffffffffff1681526020016002820160009054906101000a900473ffffffffffffffffffffffffffffffffffffffff1673ffffffffffffffffffffffffffffffffffffffff1673ffffffffffffffffffffffffffffffffffffffff1681526020016003820160009054906101000a900473ffffffffffffffffffffffffffffffffffffffff1673ffffffffffffffffffffffffffffffffffffffff1673ffffffffffffffffffffffffffffffffffffffff16815260200160048201548152602001600582018054612c6a90614f2c565b80601f0160208091040260200160405190810160405280929190818152602001828054612c9690614f2c565b8015612ce35780601f10612cb857610100808354040283529160200191612ce3565b820191906000526020600020905b815481529060010190602001808311612cc657829003601f168201915b50505050508152602001600682015481526020016007820160009054906101000a900460ff161515151581526020016008820154815260200160098201805480602002602001604051908101604052809291908181526020018280548015612da057602002820191906000526020600020905b8160009054906101000a900473ffffffffffffffffffffffffffffffffffffffff1673ffffffffffffffffffffffffffffffffffffffff1681526020019060010190808311612d56575b505050505081525050905090565b818190508484905014612df6576040517f08c379a0000000000000000000000000000000000000000000000000000000008152600401612ded90615a65565b60405180910390fd5b60005b84849050811015612e5b57612e4e858583818110612e1a57612e196156f5565b5b9050602002016020810190612e2f919061447d565b848484818110612e4257612e416156f5565b5b905060200201356105b4565b8080600101915050612df9565b5050505050565b6060600060045467ffffffffffffffff811115612e8257612e81614d98565b5b604051908082528060200260200182016040528015612ebb57816020015b612ea86142b4565b815260200190600190039081612ea05790505b5090506000600190505b600454811161318f576008600082815260200190815260200160002060405180610140016040529081600082015481526020016001820160009054906101000a900473ffffffffffffffffffffffffffffffffffffffff1673ffffffffffffffffffffffffffffffffffffffff1673ffffffffffffffffffffffffffffffffffffffff1681526020016002820160009054906101000a900473ffffffffffffffffffffffffffffffffffffffff1673ffffffffffffffffffffffffffffffffffffffff1673ffffffffffffffffffffffffffffffffffffffff1681526020016003820160009054906101000a900473ffffffffffffffffffffffffffffffffffffffff1673ffffffffffffffffffffffffffffffffffffffff1673ffffffffffffffffffffffffffffffffffffffff1681526020016004820154815260200160058201805461301390614f2c565b80601f016020809104026020016040519081016040528092919081815260200182805461303f90614f2c565b801561308c5780601f106130615761010080835404028352916020019161308c565b820191906000526020600020905b81548152906001019060200180831161306f57829003601f168201915b50505050508152602001600682015481526020016007820160009054906101000a900460ff16151515158152602001600882015481526020016009820180548060200260200160405190810160405280929190818152602001828054801561314957602002820191906000526020600020905b8160009054906101000a900473ffffffffffffffffffffffffffffffffffffffff1673ffffffffffffffffffffffffffffffffffffffff16815260200190600101908083116130ff575b5050505050815250508260018361316091906155f0565b81518110613171576131706156f5565b5b6020026020010181905250808061318790614d4b565b915050612ec5565b508091505090565b61319f613db7565b816000811180156131b257506004548111155b6131f1576040517f08c379a00000000000000000000000000000000000000000000000000000000081526004016131e890615320565b60405180910390fd5b600060086000858152602001908152602001600020905060008160030160009054906101000a900473ffffffffffffffffffffffffffffffffffffffff16905060008173ffffffffffffffffffffffffffffffffffffffff16636352211e84600401546040518263ffffffff1660e01b81526004016132709190614817565b602060405180830381865afa15801561328d573d6000803e3d6000fd5b505050506040513d601f19601f820116820180604052508101906132b19190614c83565b9050600115158360070160009054906101000a900460ff1615151461330b576040517f08c379a00000000000000000000000000000000000000000000000000000000081526004016133029061538c565b60405180910390fd5b82600601548573ffffffffffffffffffffffffffffffffffffffff1663dd62ed3e33306040518363ffffffff1660e01b815260040161334b92919061584f565b602060405180830381865afa158015613368573d6000803e3d6000fd5b505050506040513d601f19601f8201168201806040525081019061338c9190615724565b10156133cd576040517f08c379a00000000000000000000000000000000000000000000000000000000081526004016133c490615af7565b60405180910390fd5b3073ffffffffffffffffffffffffffffffffffffffff168273ffffffffffffffffffffffffffffffffffffffff1663081812fc85600401546040518263ffffffff1660e01b81526004016134219190614817565b602060405180830381865afa15801561343e573d6000803e3d6000fd5b505050506040513d601f19601f820116820180604052508101906134629190614c83565b73ffffffffffffffffffffffffffffffffffffffff16146134b8576040517f08c379a00000000000000000000000000000000000000000000000000000000081526004016134af906154b0565b60405180910390fd5b6000606460025485600601546134ce91906154d0565b6134d89190615541565b90506000808473ffffffffffffffffffffffffffffffffffffffff16632a55205a876004015488600601546040518363ffffffff1660e01b8152600401613520929190615572565b6040805180830381865afa15801561353c573d6000803e3d6000fd5b505050506040513d601f19601f8201168201806040525081019061356091906155b0565b915091506135913330858b73ffffffffffffffffffffffffffffffffffffffff16613f3b909392919063ffffffff16565b6135be3383838b73ffffffffffffffffffffffffffffffffffffffff16613f3b909392919063ffffffff16565b613605338583868a600601546135d491906155f0565b6135de91906155f0565b8b73ffffffffffffffffffffffffffffffffffffffff16613f3b909392919063ffffffff16565b613619886006613fbd90919063ffffffff16565b508473ffffffffffffffffffffffffffffffffffffffff166342842e0e8673ffffffffffffffffffffffffffffffffffffffff16636352211e89600401546040518263ffffffff1660e01b81526004016136739190614817565b602060405180830381865afa158015613690573d6000803e3d6000fd5b505050506040513d601f19601f820116820180604052508101906136b49190614c83565b3389600401546040518463ffffffff1660e01b81526004016136d893929190615624565b600060405180830381600087803b1580156136f257600080fd5b505af1158015613706573d6000803e3d6000fd5b50505050338660020160006101000a81548173ffffffffffffffffffffffffffffffffffffffff021916908373ffffffffffffffffffffffffffffffffffffffff16021790555060008660070160006101000a81548160ff0219169083151502179055506000866006018190555085600901339080600181540180825580915050600190039060005260206000200160009091909190916101000a81548173ffffffffffffffffffffffffffffffffffffffff021916908373ffffffffffffffffffffffffffffffffffffffff160217905550600360008154809291906137ec90614d4b565b91905055507f04ddd54c6b746e69ba87f862311f7670bd1d7276846778ac81cd38747b27a74689338860020160009054906101000a900473ffffffffffffffffffffffffffffffffffffffff16896006015460405161384e94939291906156b0565b60405180910390a150505050505050613865613dfd565b5050565b613871613e06565b600047116138b4576040517f08c379a00000000000000000000000000000000000000000000000000000000081526004016138ab90615b63565b60405180910390fd5b8073ffffffffffffffffffffffffffffffffffffffff166108fc479081150290604051600060405180830381858888f193505050501580156138fa573d6000803e3d6000fd5b5050565b613906613e06565b600073ffffffffffffffffffffffffffffffffffffffff168173ffffffffffffffffffffffffffffffffffffffff16036139785760006040517f1e4fbdf700000000000000000000000000000000000000000000000000000000815260040161396f91906149c1565b60405180910390fd5b61398181613fed565b50565b8160008111801561399757506004548111155b6139d6576040517f08c379a00000000000000000000000000000000000000000000000000000000081526004016139cd90615320565b60405180910390fd5b6000831180156139e857506004548311155b613a27576040517f08c379a0000000000000000000000000000000000000000000000000000000008152600401613a1e90615320565b60405180910390fd5b60006008600085815260200190815260200160002090503373ffffffffffffffffffffffffffffffffffffffff168160030160009054906101000a900473ffffffffffffffffffffffffffffffffffffffff1673ffffffffffffffffffffffffffffffffffffffff16636352211e83600401546040518263ffffffff1660e01b8152600401613ab69190614817565b602060405180830381865afa158015613ad3573d6000803e3d6000fd5b505050506040513d601f19601f82011682018060405250810190613af79190614c83565b73ffffffffffffffffffffffffffffffffffffffff1614613b4d576040517f08c379a0000000000000000000000000000000000000000000000000000000008152600401613b44906157c3565b60405180910390fd5b600015156008600086815260200190815260200160002060070160009054906101000a900460ff16151514613bb7576040517f08c379a0000000000000000000000000000000000000000000000000000000008152600401613bae9061582f565b60405180910390fd5b600554341015613bfc576040517f08c379a0000000000000000000000000000000000000000000000000000000008152600401613bf390615bcf565b60405180910390fd5b60008311613c3f576040517f08c379a0000000000000000000000000000000000000000000000000000000008152600401613c3690615c61565b60405180910390fd5b828160060181905550338160020160006101000a81548173ffffffffffffffffffffffffffffffffffffffff021916908373ffffffffffffffffffffffffffffffffffffffff16021790555060018160070160006101000a81548160ff0219169083151502179055504281600801819055507fc93edc6ee14cd6c0c2842099adfa8953b237dbdad304ba28e96dce8a7f2a828c843385604051613ce49392919061590a565b60405180910390a150505050565b600080600190505b6004548111613dab578373ffffffffffffffffffffffffffffffffffffffff166008600083815260200190815260200160002060030160009054906101000a900473ffffffffffffffffffffffffffffffffffffffff1673ffffffffffffffffffffffffffffffffffffffff16148015613d895750826008600083815260200190815260200160002060040154145b15613d98576001915050613db1565b8080613da390614d4b565b915050613cfa565b50600090505b92915050565b600260015403613df3576040517f3ee5aeb500000000000000000000000000000000000000000000000000000000815260040160405180910390fd5b6002600181905550565b60018081905550565b613e0e6140b1565b73ffffffffffffffffffffffffffffffffffffffff16613e2c61283e565b73ffffffffffffffffffffffffffffffffffffffff1614613e8b57613e4f6140b1565b6040517f118cdaa7000000000000000000000000000000000000000000000000000000008152600401613e8291906149c1565b60405180910390fd5b565b6000613e9b826000016140b9565b9050919050565b6000613eb183600001836140ca565b60001c905092915050565b613f36838473ffffffffffffffffffffffffffffffffffffffff1663a9059cbb8585604051602401613eef929190615c81565b604051602081830303815290604052915060e01b6020820180517bffffffffffffffffffffffffffffffffffffffffffffffffffffffff83818316178352505050506140f5565b505050565b613fb7848573ffffffffffffffffffffffffffffffffffffffff166323b872dd868686604051602401613f7093929190615624565b604051602081830303815290604052915060e01b6020820180517bffffffffffffffffffffffffffffffffffffffffffffffffffffffff83818316178352505050506140f5565b50505050565b6000613fe5836000018373ffffffffffffffffffffffffffffffffffffffff1660001b614197565b905092915050565b60008060009054906101000a900473ffffffffffffffffffffffffffffffffffffffff169050816000806101000a81548173ffffffffffffffffffffffffffffffffffffffff021916908373ffffffffffffffffffffffffffffffffffffffff1602179055508173ffffffffffffffffffffffffffffffffffffffff168173ffffffffffffffffffffffffffffffffffffffff167f8be0079c531659141344cd1fd0a4f28419497f9722a3daafe3b4186f6b6457e060405160405180910390a35050565b600033905090565b600081600001805490509050919050565b60008260000182815481106140e2576140e16156f5565b5b9060005260206000200154905092915050565b600080602060008451602086016000885af180614118576040513d6000823e3d81fd5b3d92506000519150506000821461413357600181141561414f565b60008473ffffffffffffffffffffffffffffffffffffffff163b145b1561419157836040517f5274afe700000000000000000000000000000000000000000000000000000000815260040161418891906149c1565b60405180910390fd5b50505050565b60006141a38383614207565b6141fc578260000182908060018154018082558091505060019003906000526020600020016000909190919091505582600001805490508360010160008481526020019081526020016000208190555060019050614201565b600090505b92915050565b600080836001016000848152602001908152602001600020541415905092915050565b8280548282559060005260206000209081019282156142a3579160200282015b828111156142a25782518260006101000a81548173ffffffffffffffffffffffffffffffffffffffff021916908373ffffffffffffffffffffffffffffffffffffffff1602179055509160200191906001019061424a565b5b5090506142b0919061434b565b5090565b60405180610140016040528060008152602001600073ffffffffffffffffffffffffffffffffffffffff168152602001600073ffffffffffffffffffffffffffffffffffffffff168152602001600073ffffffffffffffffffffffffffffffffffffffff16815260200160008152602001606081526020016000815260200160001515815260200160008152602001606081525090565b5b8082111561436457600081600090555060010161434c565b5090565b6000604051905090565b600080fd5b600080fd5b600073ffffffffffffffffffffffffffffffffffffffff82169050919050565b60006143a78261437c565b9050919050565b6143b78161439c565b81146143c257600080fd5b50565b6000813590506143d4816143ae565b92915050565b6000819050919050565b6143ed816143da565b81146143f857600080fd5b50565b60008135905061440a816143e4565b92915050565b6000806040838503121561442757614426614372565b5b6000614435858286016143c5565b9250506020614446858286016143fb565b9150509250929050565b60006020828403121561446657614465614372565b5b6000614474848285016143fb565b91505092915050565b60006020828403121561449357614492614372565b5b60006144a1848285016143c5565b91505092915050565b600081519050919050565b600082825260208201905092915050565b6000819050602082019050919050565b6144df816143da565b82525050565b60006144f08261437c565b9050919050565b614500816144e5565b82525050565b61450f8161439c565b82525050565b600081519050919050565b600082825260208201905092915050565b60005b8381101561454f578082015181840152602081019050614534565b60008484015250505050565b6000601f19601f8301169050919050565b600061457782614515565b6145818185614520565b9350614591818560208601614531565b61459a8161455b565b840191505092915050565b60008115159050919050565b6145ba816145a5565b82525050565b600081519050919050565b600082825260208201905092915050565b6000819050602082019050919050565b60006145f88383614506565b60208301905092915050565b6000602082019050919050565b600061461c826145c0565b61462681856145cb565b9350614631836145dc565b8060005b8381101561466257815161464988826145ec565b975061465483614604565b925050600181019050614635565b5085935050505092915050565b60006101408301600083015161468860008601826144d6565b50602083015161469b60208601826144f7565b5060408301516146ae60408601826144f7565b5060608301516146c16060860182614506565b5060808301516146d460808601826144d6565b5060a083015184820360a08601526146ec828261456c565b91505060c083015161470160c08601826144d6565b5060e083015161471460e08601826145b1565b506101008301516147296101008601826144d6565b506101208301518482036101208601526147438282614611565b9150508091505092915050565b600061475c838361466f565b905092915050565b6000602082019050919050565b600061477c826144aa565b61478681856144b5565b935083602082028501614798856144c6565b8060005b858110156147d457848403895281516147b58582614750565b94506147c083614764565b925060208a0199505060018101905061479c565b50829750879550505050505092915050565b600060208201905081810360008301526148008184614771565b905092915050565b614811816143da565b82525050565b600060208201905061482c6000830184614808565b92915050565b60006101408301600083015161484b60008601826144d6565b50602083015161485e60208601826144f7565b50604083015161487160408601826144f7565b5060608301516148846060860182614506565b50608083015161489760808601826144d6565b5060a083015184820360a08601526148af828261456c565b91505060c08301516148c460c08601826144d6565b5060e08301516148d760e08601826145b1565b506101008301516148ec6101008601826144d6565b506101208301518482036101208601526149068282614611565b9150508091505092915050565b6000602082019050818103600083015261492d8184614832565b905092915050565b61493e816145a5565b82525050565b60006020820190506149596000830184614935565b92915050565b60008060006060848603121561497857614977614372565b5b6000614986868287016143fb565b9350506020614997868287016143fb565b92505060406149a8868287016143c5565b9150509250925092565b6149bb8161439c565b82525050565b60006020820190506149d660008301846149b2565b92915050565b600080fd5b600080fd5b600080fd5b60008083601f840112614a0157614a006149dc565b5b8235905067ffffffffffffffff811115614a1e57614a1d6149e1565b5b602083019150836020820283011115614a3a57614a396149e6565b5b9250929050565b60008083601f840112614a5757614a566149dc565b5b8235905067ffffffffffffffff811115614a7457614a736149e1565b5b602083019150836020820283011115614a9057614a8f6149e6565b5b9250929050565b60008060008060408587031215614ab157614ab0614372565b5b600085013567ffffffffffffffff811115614acf57614ace614377565b5b614adb878288016149eb565b9450945050602085013567ffffffffffffffff811115614afe57614afd614377565b5b614b0a87828801614a41565b925092505092959194509250565b60008060408385031215614b2f57614b2e614372565b5b6000614b3d858286016143fb565b9250506020614b4e858286016143c5565b9150509250929050565b614b61816144e5565b8114614b6c57600080fd5b50565b600081359050614b7e81614b58565b92915050565b600060208284031215614b9a57614b99614372565b5b6000614ba884828501614b6f565b91505092915050565b60008060408385031215614bc857614bc7614372565b5b6000614bd6858286016143fb565b9250506020614be7858286016143fb565b9150509250929050565b600082825260208201905092915050565b7f4e465420616c7265616479206578697369747320696e206d61726b6574000000600082015250565b6000614c38601d83614bf1565b9150614c4382614c02565b602082019050919050565b60006020820190508181036000830152614c6781614c2b565b9050919050565b600081519050614c7d816143ae565b92915050565b600060208284031215614c9957614c98614372565b5b6000614ca784828501614c6e565b91505092915050565b7f596f7520617265206e6f7420746865206f776e6572206f6620746f6b656e0000600082015250565b6000614ce6601e83614bf1565b9150614cf182614cb0565b602082019050919050565b60006020820190508181036000830152614d1581614cd9565b9050919050565b7f4e487b7100000000000000000000000000000000000000000000000000000000600052601160045260246000fd5b6000614d56826143da565b91507fffffffffffffffffffffffffffffffffffffffffffffffffffffffffffffffff8203614d8857614d87614d1c565b5b600182019050919050565b600080fd5b7f4e487b7100000000000000000000000000000000000000000000000000000000600052604160045260246000fd5b614dd08261455b565b810181811067ffffffffffffffff82111715614def57614dee614d98565b5b80604052505050565b6000614e02614368565b9050614e0e8282614dc7565b919050565b600067ffffffffffffffff821115614e2e57614e2d614d98565b5b614e378261455b565b9050602081019050919050565b6000614e57614e5284614e13565b614df8565b905082815260208101848484011115614e7357614e72614d93565b5b614e7e848285614531565b509392505050565b600082601f830112614e9b57614e9a6149dc565b5b8151614eab848260208601614e44565b91505092915050565b600060208284031215614eca57614ec9614372565b5b600082015167ffffffffffffffff811115614ee857614ee7614377565b5b614ef484828501614e86565b91505092915050565b7f4e487b7100000000000000000000000000000000000000000000000000000000600052602260045260246000fd5b60006002820490506001821680614f4457607f821691505b602082108103614f5757614f56614efd565b5b50919050565b60008190508160005260206000209050919050565b60006020601f8301049050919050565b600082821b905092915050565b600060088302614fbf7fffffffffffffffffffffffffffffffffffffffffffffffffffffffffffffffff82614f82565b614fc98683614f82565b95508019841693508086168417925050509392505050565b6000819050919050565b6000615006615001614ffc846143da565b614fe1565b6143da565b9050919050565b6000819050919050565b61502083614feb565b61503461502c8261500d565b848454614f8f565b825550505050565b600090565b61504961503c565b615054818484615017565b505050565b5b818110156150785761506d600082615041565b60018101905061505a565b5050565b601f8211156150bd5761508e81614f5d565b61509784614f72565b810160208510156150a6578190505b6150ba6150b285614f72565b830182615059565b50505b505050565b600082821c905092915050565b60006150e0600019846008026150c2565b1980831691505092915050565b60006150f983836150cf565b9150826002028217905092915050565b61511282614515565b67ffffffffffffffff81111561512b5761512a614d98565b5b6151358254614f2c565b61514082828561507c565b600060209050601f8311600181146151735760008415615161578287015190505b61516b85826150ed565b8655506151d3565b601f19841661518186614f5d565b60005b828110156151a957848901518255600182019150602085019450602081019050615184565b868310156151c657848901516151c2601f8916826150cf565b8355505b6001600288020188555050505b505050505050565b60006151e682614515565b6151f08185614bf1565b9350615200818560208601614531565b6152098161455b565b840191505092915050565b6000819050919050565b600061523961523461522f84615214565b614fe1565b6143da565b9050919050565b6152498161521e565b82525050565b600061010082019050615265600083018b614808565b615272602083018a6149b2565b61527f60408301896149b2565b61528c6060830188614808565b818103608083015261529e81876151db565b90506152ad60a0830186615240565b6152ba60c0830185614935565b6152c760e0830184614808565b9998505050505050505050565b7f496e76616c6964204974656d204e756d62657200000000000000000000000000600082015250565b600061530a601383614bf1565b9150615315826152d4565b602082019050919050565b60006020820190508181036000830152615339816152fd565b9050919050565b7f4e4654206e6f74206c6973746564000000000000000000000000000000000000600082015250565b6000615376600e83614bf1565b915061538182615340565b602082019050919050565b600060208201905081810360008301526153a581615369565b9050919050565b7f496e73756666696369656e742066756e647320616c6c6f77616e636520746f2060008201527f62757920746865206e6674000000000000000000000000000000000000000000602082015250565b6000615408602b83614bf1565b9150615413826153ac565b604082019050919050565b60006020820190508181036000830152615437816153fb565b9050919050565b7f4e4654206e6f7420617070726f76656420746f206265207472616e736665727260008201527f6564000000000000000000000000000000000000000000000000000000000000602082015250565b600061549a602283614bf1565b91506154a58261543e565b604082019050919050565b600060208201905081810360008301526154c98161548d565b9050919050565b60006154db826143da565b91506154e6836143da565b92508282026154f4816143da565b9150828204841483151761550b5761550a614d1c565b5b5092915050565b7f4e487b7100000000000000000000000000000000000000000000000000000000600052601260045260246000fd5b600061554c826143da565b9150615557836143da565b92508261556757615566615512565b5b828204905092915050565b60006040820190506155876000830185614808565b6155946020830184614808565b9392505050565b6000815190506155aa816143e4565b92915050565b600080604083850312156155c7576155c6614372565b5b60006155d585828601614c6e565b92505060206155e68582860161559b565b9150509250929050565b60006155fb826143da565b9150615606836143da565b925082820390508181111561561e5761561d614d1c565b5b92915050565b600060608201905061563960008301866149b2565b61564660208301856149b2565b6156536040830184614808565b949350505050565b600061567661567161566c8461437c565b614fe1565b61437c565b9050919050565b60006156888261565b565b9050919050565b600061569a8261567d565b9050919050565b6156aa8161568f565b82525050565b60006080820190506156c56000830187614808565b6156d260208301866149b2565b6156df60408301856156a1565b6156ec6060830184614808565b95945050505050565b7f4e487b7100000000000000000000000000000000000000000000000000000000600052603260045260246000fd5b60006020828403121561573a57615739614372565b5b60006157488482850161559b565b91505092915050565b7f596f7520617265206e6f7420746865206f776e6572206f662074686973204e4660008201527f5400000000000000000000000000000000000000000000000000000000000000602082015250565b60006157ad602183614bf1565b91506157b882615751565b604082019050919050565b600060208201905081810360008301526157dc816157a0565b9050919050565b7f4e465420616c7265616479206c69737465640000000000000000000000000000600082015250565b6000615819601283614bf1565b9150615824826157e3565b602082019050919050565b600060208201905081810360008301526158488161580c565b9050919050565b600060408201905061586460008301856149b2565b61587160208301846149b2565b9392505050565b7f496e73756666696369656e742066756e6420616c6c6f77616e636520746f206c60008201527f6973740000000000000000000000000000000000000000000000000000000000602082015250565b60006158d4602383614bf1565b91506158df82615878565b604082019050919050565b60006020820190508181036000830152615903816158c7565b9050919050565b600060608201905061591f6000830186614808565b61592c60208301856149b2565b6159396040830184614808565b949350505050565b7f4e4654206e6f7420666f756e6400000000000000000000000000000000000000600082015250565b6000615977600d83614bf1565b915061598282615941565b602082019050919050565b600060208201905081810360008301526159a68161596a565b9050919050565b7f4e6f204e465473206c6973746564207965740000000000000000000000000000600082015250565b60006159e3601283614bf1565b91506159ee826159ad565b602082019050919050565b60006020820190508181036000830152615a12816159d6565b9050919050565b7f4d69736d61746368656420696e707574206c656e677468730000000000000000600082015250565b6000615a4f601883614bf1565b9150615a5a82615a19565b602082019050919050565b60006020820190508181036000830152615a7e81615a42565b9050919050565b7f496e73756666696369656e7420617070726f7665642066756e647320746f206260008201527f757920746865206e667400000000000000000000000000000000000000000000602082015250565b6000615ae1602a83614bf1565b9150615aec82615a85565b604082019050919050565b60006020820190508181036000830152615b1081615ad4565b9050919050565b7f496e73756666696369656e742066756e647320746f2077697468647261770000600082015250565b6000615b4d601e83614bf1565b9150615b5882615b17565b602082019050919050565b60006020820190508181036000830152615b7c81615b40565b9050919050565b7f496e73756666696369656e742062616c616e6365000000000000000000000000600082015250565b6000615bb9601483614bf1565b9150615bc482615b83565b602082019050919050565b60006020820190508181036000830152615be881615bac565b9050919050565b7f53656c6c696e672050726963652073686f756c6420626520677265617465722060008201527f7468616e20300000000000000000000000000000000000000000000000000000602082015250565b6000615c4b602683614bf1565b9150615c5682615bef565b604082019050919050565b60006020820190508181036000830152615c7a81615c3e565b9050919050565b6000604082019050615c9660008301856149b2565b615ca36020830184614808565b939250505056fea26469706673582212200c67d44749ce0589dc9f582c82c8baa2d6deb7ae5bc1a34f0ba1feae24c991f364736f6c63430008160033",
  "linkReferences": {},
  "deployedLinkReferences": {}
}