{
  "_format": "hh-sol-artifact-1",
  "contractName": "FireNFTToken",
  "sourceName": "contracts/FireNFTToken.sol",
  "abi": [
    {
      "inputs": [
        {
          "internalType": "string",
          "name": "name",
          "type": "string"
        },
        {
          "internalType": "string",
          "name": "symbol",
          "type": "string"
        }
      ],
      "stateMutability": "nonpayable",
      "type": "constructor"
    },
    {
      "inputs": [
        {
          "internalType": "address",
          "name": "sender",
          "type": "address"
        },
        {
          "internalType": "uint256",
          "name": "tokenId",
          "type": "uint256"
        },
        {
          "internalType": "address",
          "name": "owner",
          "type": "address"
        }
      ],
      "name": "ERC721IncorrectOwner",
      "type": "error"
    },
    {
      "inputs": [
        {
          "internalType": "address",
          "name": "operator",
          "type": "address"
        },
        {
          "internalType": "uint256",
          "name": "tokenId",
          "type": "uint256"
        }
      ],
      "name": "ERC721InsufficientApproval",
      "type": "error"
    },
    {
      "inputs": [
        {
          "internalType": "address",
          "name": "approver",
          "type": "address"
        }
      ],
      "name": "ERC721InvalidApprover",
      "type": "error"
    },
    {
      "inputs": [
        {
          "internalType": "address",
          "name": "operator",
          "type": "address"
        }
      ],
      "name": "ERC721InvalidOperator",
      "type": "error"
    },
    {
      "inputs": [
        {
          "internalType": "address",
          "name": "owner",
          "type": "address"
        }
      ],
      "name": "ERC721InvalidOwner",
      "type": "error"
    },
    {
      "inputs": [
        {
          "internalType": "address",
          "name": "receiver",
          "type": "address"
        }
      ],
      "name": "ERC721InvalidReceiver",
      "type": "error"
    },
    {
      "inputs": [
        {
          "internalType": "address",
          "name": "sender",
          "type": "address"
        }
      ],
      "name": "ERC721InvalidSender",
      "type": "error"
    },
    {
      "inputs": [
        {
          "internalType": "uint256",
          "name": "tokenId",
          "type": "uint256"
        }
      ],
      "name": "ERC721NonexistentToken",
      "type": "error"
    },
    {
      "inputs": [
        {
          "internalType": "address",
          "name": "owner",
          "type": "address"
        }
      ],
      "name": "OwnableInvalidOwner",
      "type": "error"
    },
    {
      "inputs": [
        {
          "internalType": "address",
          "name": "account",
          "type": "address"
        }
      ],
      "name": "OwnableUnauthorizedAccount",
      "type": "error"
    },
    {
      "inputs": [],
      "name": "ReentrancyGuardReentrantCall",
      "type": "error"
    },
    {
      "anonymous": false,
      "inputs": [
        {
          "indexed": true,
          "internalType": "address",
          "name": "owner",
          "type": "address"
        },
        {
          "indexed": true,
          "internalType": "address",
          "name": "approved",
          "type": "address"
        },
        {
          "indexed": true,
          "internalType": "uint256",
          "name": "tokenId",
          "type": "uint256"
        }
      ],
      "name": "Approval",
      "type": "event"
    },
    {
      "anonymous": false,
      "inputs": [
        {
          "indexed": true,
          "internalType": "address",
          "name": "owner",
          "type": "address"
        },
        {
          "indexed": true,
          "internalType": "address",
          "name": "operator",
          "type": "address"
        },
        {
          "indexed": false,
          "internalType": "bool",
          "name": "approved",
          "type": "bool"
        }
      ],
      "name": "ApprovalForAll",
      "type": "event"
    },
    {
      "anonymous": false,
      "inputs": [
        {
          "indexed": false,
          "internalType": "uint256",
          "name": "_fromTokenId",
          "type": "uint256"
        },
        {
          "indexed": false,
          "internalType": "uint256",
          "name": "_toTokenId",
          "type": "uint256"
        }
      ],
      "name": "BatchMetadataUpdate",
      "type": "event"
    },
    {
      "anonymous": false,
      "inputs": [
        {
          "indexed": false,
          "internalType": "uint256",
          "name": "_tokenId",
          "type": "uint256"
        }
      ],
      "name": "MetadataUpdate",
      "type": "event"
    },
    {
      "anonymous": false,
      "inputs": [
        {
          "indexed": false,
          "internalType": "uint256",
          "name": "tokenId",
          "type": "uint256"
        },
        {
          "indexed": false,
          "internalType": "string",
          "name": "tokenURI",
          "type": "string"
        }
      ],
      "name": "NFTCreated",
      "type": "event"
    },
    {
      "anonymous": false,
      "inputs": [
        {
          "indexed": true,
          "internalType": "address",
          "name": "previousOwner",
          "type": "address"
        },
        {
          "indexed": true,
          "internalType": "address",
          "name": "newOwner",
          "type": "address"
        }
      ],
      "name": "OwnershipTransferred",
      "type": "event"
    },
    {
      "anonymous": false,
      "inputs": [
        {
          "indexed": true,
          "internalType": "address",
          "name": "from",
          "type": "address"
        },
        {
          "indexed": true,
          "internalType": "address",
          "name": "to",
          "type": "address"
        },
        {
          "indexed": true,
          "internalType": "uint256",
          "name": "tokenId",
          "type": "uint256"
        }
      ],
      "name": "Transfer",
      "type": "event"
    },
    {
      "inputs": [
        {
          "internalType": "address",
          "name": "to",
          "type": "address"
        },
        {
          "internalType": "uint256",
          "name": "tokenId",
          "type": "uint256"
        }
      ],
      "name": "approve",
      "outputs": [],
      "stateMutability": "nonpayable",
      "type": "function"
    },
    {
      "inputs": [
        {
          "internalType": "address",
          "name": "owner",
          "type": "address"
        }
      ],
      "name": "balanceOf",
      "outputs": [
        {
          "internalType": "uint256",
          "name": "",
          "type": "uint256"
        }
      ],
      "stateMutability": "view",
      "type": "function"
    },
    {
      "inputs": [
        {
          "internalType": "string[]",
          "name": "tokenURIs",
          "type": "string[]"
        }
      ],
      "name": "createNFTs",
      "outputs": [],
      "stateMutability": "nonpayable",
      "type": "function"
    },
    {
      "inputs": [
        {
          "internalType": "uint256",
          "name": "tokenId",
          "type": "uint256"
        }
      ],
      "name": "getApproved",
      "outputs": [
        {
          "internalType": "address",
          "name": "",
          "type": "address"
        }
      ],
      "stateMutability": "view",
      "type": "function"
    },
    {
      "inputs": [],
      "name": "getCurrentTokenId",
      "outputs": [
        {
          "internalType": "uint256",
          "name": "",
          "type": "uint256"
        }
      ],
      "stateMutability": "view",
      "type": "function"
    },
    {
      "inputs": [
        {
          "internalType": "address",
          "name": "owner",
          "type": "address"
        },
        {
          "internalType": "address",
          "name": "operator",
          "type": "address"
        }
      ],
      "name": "isApprovedForAll",
      "outputs": [
        {
          "internalType": "bool",
          "name": "",
          "type": "bool"
        }
      ],
      "stateMutability": "view",
      "type": "function"
    },
    {
      "inputs": [],
      "name": "name",
      "outputs": [
        {
          "internalType": "string",
          "name": "",
          "type": "string"
        }
      ],
      "stateMutability": "view",
      "type": "function"
    },
    {
      "inputs": [],
      "name": "owner",
      "outputs": [
        {
          "internalType": "address",
          "name": "",
          "type": "address"
        }
      ],
      "stateMutability": "view",
      "type": "function"
    },
    {
      "inputs": [
        {
          "internalType": "uint256",
          "name": "tokenId",
          "type": "uint256"
        }
      ],
      "name": "ownerOf",
      "outputs": [
        {
          "internalType": "address",
          "name": "",
          "type": "address"
        }
      ],
      "stateMutability": "view",
      "type": "function"
    },
    {
      "inputs": [],
      "name": "renounceOwnership",
      "outputs": [],
      "stateMutability": "nonpayable",
      "type": "function"
    },
    {
      "inputs": [
        {
          "internalType": "uint256",
          "name": "tokenId",
          "type": "uint256"
        },
        {
          "internalType": "uint256",
          "name": "salePrice",
          "type": "uint256"
        }
      ],
      "name": "royaltyInfo",
      "outputs": [
        {
          "internalType": "address",
          "name": "receiver",
          "type": "address"
        },
        {
          "internalType": "uint256",
          "name": "royaltyAmount",
          "type": "uint256"
        }
      ],
      "stateMutability": "view",
      "type": "function"
    },
    {
      "inputs": [
        {
          "internalType": "address",
          "name": "from",
          "type": "address"
        },
        {
          "internalType": "address",
          "name": "to",
          "type": "address"
        },
        {
          "internalType": "uint256",
          "name": "tokenId",
          "type": "uint256"
        }
      ],
      "name": "safeTransferFrom",
      "outputs": [],
      "stateMutability": "nonpayable",
      "type": "function"
    },
    {
      "inputs": [
        {
          "internalType": "address",
          "name": "from",
          "type": "address"
        },
        {
          "internalType": "address",
          "name": "to",
          "type": "address"
        },
        {
          "internalType": "uint256",
          "name": "tokenId",
          "type": "uint256"
        },
        {
          "internalType": "bytes",
          "name": "data",
          "type": "bytes"
        }
      ],
      "name": "safeTransferFrom",
      "outputs": [],
      "stateMutability": "nonpayable",
      "type": "function"
    },
    {
      "inputs": [
        {
          "internalType": "address",
          "name": "operator",
          "type": "address"
        },
        {
          "internalType": "bool",
          "name": "approved",
          "type": "bool"
        }
      ],
      "name": "setApprovalForAll",
      "outputs": [],
      "stateMutability": "nonpayable",
      "type": "function"
    },
    {
      "inputs": [
        {
          "internalType": "uint256",
          "name": "tokenId",
          "type": "uint256"
        },
        {
          "internalType": "uint256",
          "name": "royaltyFee",
          "type": "uint256"
        }
      ],
      "name": "setRoyaltyInfo",
      "outputs": [],
      "stateMutability": "nonpayable",
      "type": "function"
    },
    {
      "inputs": [
        {
          "internalType": "bytes4",
          "name": "interfaceId",
          "type": "bytes4"
        }
      ],
      "name": "supportsInterface",
      "outputs": [
        {
          "internalType": "bool",
          "name": "",
          "type": "bool"
        }
      ],
      "stateMutability": "view",
      "type": "function"
    },
    {
      "inputs": [],
      "name": "symbol",
      "outputs": [
        {
          "internalType": "string",
          "name": "",
          "type": "string"
        }
      ],
      "stateMutability": "view",
      "type": "function"
    },
    {
      "inputs": [
        {
          "internalType": "uint256",
          "name": "tokenId",
          "type": "uint256"
        }
      ],
      "name": "tokenURI",
      "outputs": [
        {
          "internalType": "string",
          "name": "",
          "type": "string"
        }
      ],
      "stateMutability": "view",
      "type": "function"
    },
    {
      "inputs": [
        {
          "internalType": "address",
          "name": "from",
          "type": "address"
        },
        {
          "internalType": "address",
          "name": "to",
          "type": "address"
        },
        {
          "internalType": "uint256",
          "name": "tokenId",
          "type": "uint256"
        }
      ],
      "name": "transferFrom",
      "outputs": [],
      "stateMutability": "nonpayable",
      "type": "function"
    },
    {
      "inputs": [
        {
          "internalType": "address",
          "name": "newOwner",
          "type": "address"
        }
      ],
      "name": "transferOwnership",
      "outputs": [],
      "stateMutability": "nonpayable",
      "type": "function"
    }
  ],
  "bytecode": "0x60806040523480156200001157600080fd5b50604051620033a4380380620033a4833981810160405281019062000037919062000355565b818133600073ffffffffffffffffffffffffffffffffffffffff168173ffffffffffffffffffffffffffffffffffffffff1603620000af5760006040517f1e4fbdf7000000000000000000000000000000000000000000000000000000008152600401620000a691906200041f565b60405180910390fd5b620000c081620000fe60201b60201c565b50600180819055508160029081620000d9919062000687565b508060039081620000eb919062000687565b505050600060098190555050506200076e565b60008060009054906101000a900473ffffffffffffffffffffffffffffffffffffffff169050816000806101000a81548173ffffffffffffffffffffffffffffffffffffffff021916908373ffffffffffffffffffffffffffffffffffffffff1602179055508173ffffffffffffffffffffffffffffffffffffffff168173ffffffffffffffffffffffffffffffffffffffff167f8be0079c531659141344cd1fd0a4f28419497f9722a3daafe3b4186f6b6457e060405160405180910390a35050565b6000604051905090565b600080fd5b600080fd5b600080fd5b600080fd5b6000601f19601f8301169050919050565b7f4e487b7100000000000000000000000000000000000000000000000000000000600052604160045260246000fd5b6200022b82620001e0565b810181811067ffffffffffffffff821117156200024d576200024c620001f1565b5b80604052505050565b600062000262620001c2565b905062000270828262000220565b919050565b600067ffffffffffffffff821115620002935762000292620001f1565b5b6200029e82620001e0565b9050602081019050919050565b60005b83811015620002cb578082015181840152602081019050620002ae565b60008484015250505050565b6000620002ee620002e88462000275565b62000256565b9050828152602081018484840111156200030d576200030c620001db565b5b6200031a848285620002ab565b509392505050565b600082601f8301126200033a5762000339620001d6565b5b81516200034c848260208601620002d7565b91505092915050565b600080604083850312156200036f576200036e620001cc565b5b600083015167ffffffffffffffff81111562000390576200038f620001d1565b5b6200039e8582860162000322565b925050602083015167ffffffffffffffff811115620003c257620003c1620001d1565b5b620003d08582860162000322565b9150509250929050565b600073ffffffffffffffffffffffffffffffffffffffff82169050919050565b60006200040782620003da565b9050919050565b6200041981620003fa565b82525050565b60006020820190506200043660008301846200040e565b92915050565b600081519050919050565b7f4e487b7100000000000000000000000000000000000000000000000000000000600052602260045260246000fd5b600060028204905060018216806200048f57607f821691505b602082108103620004a557620004a462000447565b5b50919050565b60008190508160005260206000209050919050565b60006020601f8301049050919050565b600082821b905092915050565b6000600883026200050f7fffffffffffffffffffffffffffffffffffffffffffffffffffffffffffffffff82620004d0565b6200051b8683620004d0565b95508019841693508086168417925050509392505050565b6000819050919050565b6000819050919050565b600062000568620005626200055c8462000533565b6200053d565b62000533565b9050919050565b6000819050919050565b620005848362000547565b6200059c62000593826200056f565b848454620004dd565b825550505050565b600090565b620005b3620005a4565b620005c081848462000579565b505050565b5b81811015620005e857620005dc600082620005a9565b600181019050620005c6565b5050565b601f82111562000637576200060181620004ab565b6200060c84620004c0565b810160208510156200061c578190505b620006346200062b85620004c0565b830182620005c5565b50505b505050565b600082821c905092915050565b60006200065c600019846008026200063c565b1980831691505092915050565b600062000677838362000649565b9150826002028217905092915050565b62000692826200043c565b67ffffffffffffffff811115620006ae57620006ad620001f1565b5b620006ba825462000476565b620006c7828285620005ec565b600060209050601f831160018114620006ff5760008415620006ea578287015190505b620006f6858262000669565b86555062000766565b601f1984166200070f86620004ab565b60005b82811015620007395784890151825560018201915060208501945060208101905062000712565b8683101562000759578489015162000755601f89168262000649565b8355505b6001600288020188555050505b505050505050565b612c26806200077e6000396000f3fe608060405234801561001057600080fd5b506004361061012c5760003560e01c8063715018a6116100ad578063b88d4fde11610071578063b88d4fde14610330578063c87b56dd1461034c578063e985e9c51461037c578063f19f1f00146103ac578063f2fde38b146103c85761012c565b8063715018a6146102b25780637844b621146102bc5780638da5cb5b146102d857806395d89b41146102f6578063a22cb465146103145761012c565b80632a55205a116100f45780632a55205a146101e757806342842e0e1461021857806356189236146102345780636352211e1461025257806370a08231146102825761012c565b806301ffc9a71461013157806306fdde0314610161578063081812fc1461017f578063095ea7b3146101af57806323b872dd146101cb575b600080fd5b61014b60048036038101906101469190611e2d565b6103e4565b6040516101589190611e75565b60405180910390f35b6101696104c6565b6040516101769190611f20565b60405180910390f35b61019960048036038101906101949190611f78565b610558565b6040516101a69190611fe6565b60405180910390f35b6101c960048036038101906101c4919061202d565b610574565b005b6101e560048036038101906101e0919061206d565b61058a565b005b61020160048036038101906101fc91906120c0565b61068c565b60405161020f92919061210f565b60405180910390f35b610232600480360381019061022d919061206d565b6106ff565b005b61023c61071f565b6040516102499190612138565b60405180910390f35b61026c60048036038101906102679190611f78565b610729565b6040516102799190611fe6565b60405180910390f35b61029c60048036038101906102979190612153565b61073b565b6040516102a99190612138565b60405180910390f35b6102ba6107f5565b005b6102d660048036038101906102d1919061239b565b610809565b005b6102e061085a565b6040516102ed9190611fe6565b60405180910390f35b6102fe610883565b60405161030b9190611f20565b60405180910390f35b61032e60048036038101906103299190612410565b610915565b005b61034a600480360381019061034591906124f1565b61092b565b005b61036660048036038101906103619190611f78565b610950565b6040516103739190611f20565b60405180910390f35b61039660048036038101906103919190612574565b610a63565b6040516103a39190611e75565b60405180910390f35b6103c660048036038101906103c191906120c0565b610af7565b005b6103e260048036038101906103dd9190612153565b610b5f565b005b60007f2a55205a000000000000000000000000000000000000000000000000000000007bffffffffffffffffffffffffffffffffffffffffffffffffffffffff1916827bffffffffffffffffffffffffffffffffffffffffffffffffffffffff191614806104af57507fda0d82f5000000000000000000000000000000000000000000000000000000007bffffffffffffffffffffffffffffffffffffffffffffffffffffffff1916827bffffffffffffffffffffffffffffffffffffffffffffffffffffffff1916145b806104bf57506104be82610be5565b5b9050919050565b6060600280546104d5906125e3565b80601f0160208091040260200160405190810160405280929190818152602001828054610501906125e3565b801561054e5780601f106105235761010080835404028352916020019161054e565b820191906000526020600020905b81548152906001019060200180831161053157829003601f168201915b5050505050905090565b600061056382610c46565b5061056d82610cce565b9050919050565b6105868282610581610d0b565b610d13565b5050565b600073ffffffffffffffffffffffffffffffffffffffff168273ffffffffffffffffffffffffffffffffffffffff16036105fc5760006040517f64a0ae920000000000000000000000000000000000000000000000000000000081526004016105f39190611fe6565b60405180910390fd5b6000610610838361060b610d0b565b610d25565b90508373ffffffffffffffffffffffffffffffffffffffff168173ffffffffffffffffffffffffffffffffffffffff1614610686578382826040517f64283d7b00000000000000000000000000000000000000000000000000000000815260040161067d93929190612614565b60405180910390fd5b50505050565b6000806000600a6000868152602001908152602001600020549050606481856106b5919061267a565b6106bf91906126eb565b9150600b600086815260200190815260200160002060009054906101000a900473ffffffffffffffffffffffffffffffffffffffff169250509250929050565b61071a8383836040518060200160405280600081525061092b565b505050565b6000600954905090565b600061073482610c46565b9050919050565b60008073ffffffffffffffffffffffffffffffffffffffff168273ffffffffffffffffffffffffffffffffffffffff16036107ae5760006040517f89c62b640000000000000000000000000000000000000000000000000000000081526004016107a59190611fe6565b60405180910390fd5b600560008373ffffffffffffffffffffffffffffffffffffffff1673ffffffffffffffffffffffffffffffffffffffff168152602001908152602001600020549050919050565b6107fd610f3f565b6108076000610fc6565b565b61081161108a565b60005b815181101561084e576108418282815181106108335761083261271c565b5b6020026020010151336110d0565b8080600101915050610814565b5061085761118d565b50565b60008060009054906101000a900473ffffffffffffffffffffffffffffffffffffffff16905090565b606060038054610892906125e3565b80601f01602080910402602001604051908101604052809291908181526020018280546108be906125e3565b801561090b5780601f106108e05761010080835404028352916020019161090b565b820191906000526020600020905b8154815290600101906020018083116108ee57829003601f168201915b5050505050905090565b610927610920610d0b565b8383611196565b5050565b61093684848461058a565b61094a610941610d0b565b85858585611305565b50505050565b606061095b82610c46565b50600060086000848152602001908152602001600020805461097c906125e3565b80601f01602080910402602001604051908101604052809291908181526020018280546109a8906125e3565b80156109f55780601f106109ca576101008083540402835291602001916109f5565b820191906000526020600020905b8154815290600101906020018083116109d857829003601f168201915b505050505090506000610a066114b6565b90506000815103610a1b578192505050610a5e565b600082511115610a50578082604051602001610a38929190612787565b60405160208183030381529060405292505050610a5e565b610a59846114cd565b925050505b919050565b6000600760008473ffffffffffffffffffffffffffffffffffffffff1673ffffffffffffffffffffffffffffffffffffffff16815260200190815260200160002060008373ffffffffffffffffffffffffffffffffffffffff1673ffffffffffffffffffffffffffffffffffffffff16815260200190815260200160002060009054906101000a900460ff16905092915050565b610aff610f3f565b6032811115610b43576040517f08c379a0000000000000000000000000000000000000000000000000000000008152600401610b3a906127f7565b60405180910390fd5b80600a6000848152602001908152602001600020819055505050565b610b67610f3f565b600073ffffffffffffffffffffffffffffffffffffffff168173ffffffffffffffffffffffffffffffffffffffff1603610bd95760006040517f1e4fbdf7000000000000000000000000000000000000000000000000000000008152600401610bd09190611fe6565b60405180910390fd5b610be281610fc6565b50565b6000634906490660e01b7bffffffffffffffffffffffffffffffffffffffffffffffffffffffff1916827bffffffffffffffffffffffffffffffffffffffffffffffffffffffff19161480610c3f5750610c3e82611536565b5b9050919050565b600080610c5283611618565b9050600073ffffffffffffffffffffffffffffffffffffffff168173ffffffffffffffffffffffffffffffffffffffff1603610cc557826040517f7e273289000000000000000000000000000000000000000000000000000000008152600401610cbc9190612138565b60405180910390fd5b80915050919050565b60006006600083815260200190815260200160002060009054906101000a900473ffffffffffffffffffffffffffffffffffffffff169050919050565b600033905090565b610d208383836001611655565b505050565b600080610d3184611618565b9050600073ffffffffffffffffffffffffffffffffffffffff168373ffffffffffffffffffffffffffffffffffffffff1614610d7357610d7281848661181a565b5b600073ffffffffffffffffffffffffffffffffffffffff168173ffffffffffffffffffffffffffffffffffffffff1614610e0457610db5600085600080611655565b6001600560008373ffffffffffffffffffffffffffffffffffffffff1673ffffffffffffffffffffffffffffffffffffffff168152602001908152602001600020600082825403925050819055505b600073ffffffffffffffffffffffffffffffffffffffff168573ffffffffffffffffffffffffffffffffffffffff1614610e87576001600560008773ffffffffffffffffffffffffffffffffffffffff1673ffffffffffffffffffffffffffffffffffffffff168152602001908152602001600020600082825401925050819055505b846004600086815260200190815260200160002060006101000a81548173ffffffffffffffffffffffffffffffffffffffff021916908373ffffffffffffffffffffffffffffffffffffffff160217905550838573ffffffffffffffffffffffffffffffffffffffff168273ffffffffffffffffffffffffffffffffffffffff167fddf252ad1be2c89b69c2b068fc378daa952ba7f163c4a11628f55a4df523b3ef60405160405180910390a4809150509392505050565b610f47610d0b565b73ffffffffffffffffffffffffffffffffffffffff16610f6561085a565b73ffffffffffffffffffffffffffffffffffffffff1614610fc457610f88610d0b565b6040517f118cdaa7000000000000000000000000000000000000000000000000000000008152600401610fbb9190611fe6565b60405180910390fd5b565b60008060009054906101000a900473ffffffffffffffffffffffffffffffffffffffff169050816000806101000a81548173ffffffffffffffffffffffffffffffffffffffff021916908373ffffffffffffffffffffffffffffffffffffffff1602179055508173ffffffffffffffffffffffffffffffffffffffff168173ffffffffffffffffffffffffffffffffffffffff167f8be0079c531659141344cd1fd0a4f28419497f9722a3daafe3b4186f6b6457e060405160405180910390a35050565b6002600154036110c6576040517f3ee5aeb500000000000000000000000000000000000000000000000000000000815260040160405180910390fd5b6002600181905550565b6110ee816009600081546110e390612817565b9190508190556118de565b6110fa600954836118fc565b80600b6000600954815260200190815260200160002060006101000a81548173ffffffffffffffffffffffffffffffffffffffff021916908373ffffffffffffffffffffffffffffffffffffffff1602179055507fe883eeefa7f620d513eac93479fc9f54ce03f9f4a72c0d818311a9d19556e8796009548360405161118192919061285f565b60405180910390a15050565b60018081905550565b600073ffffffffffffffffffffffffffffffffffffffff168273ffffffffffffffffffffffffffffffffffffffff160361120757816040517f5b08ba180000000000000000000000000000000000000000000000000000000081526004016111fe9190611fe6565b60405180910390fd5b80600760008573ffffffffffffffffffffffffffffffffffffffff1673ffffffffffffffffffffffffffffffffffffffff16815260200190815260200160002060008473ffffffffffffffffffffffffffffffffffffffff1673ffffffffffffffffffffffffffffffffffffffff16815260200190815260200160002060006101000a81548160ff0219169083151502179055508173ffffffffffffffffffffffffffffffffffffffff168373ffffffffffffffffffffffffffffffffffffffff167f17307eab39ab6107e8899845ad3d59bd9653f200f220920489ca2b5937696c31836040516112f89190611e75565b60405180910390a3505050565b60008373ffffffffffffffffffffffffffffffffffffffff163b11156114af578273ffffffffffffffffffffffffffffffffffffffff1663150b7a02868685856040518563ffffffff1660e01b815260040161136494939291906128e4565b6020604051808303816000875af19250505080156113a057506040513d601f19601f8201168201806040525081019061139d9190612945565b60015b611424573d80600081146113d0576040519150601f19603f3d011682016040523d82523d6000602084013e6113d5565b606091505b50600081510361141c57836040517f64a0ae920000000000000000000000000000000000000000000000000000000081526004016114139190611fe6565b60405180910390fd5b805181602001fd5b63150b7a0260e01b7bffffffffffffffffffffffffffffffffffffffffffffffffffffffff1916817bffffffffffffffffffffffffffffffffffffffffffffffffffffffff1916146114ad57836040517f64a0ae920000000000000000000000000000000000000000000000000000000081526004016114a49190611fe6565b60405180910390fd5b505b5050505050565b606060405180602001604052806000815250905090565b60606114d882610c46565b5060006114e36114b6565b90506000815111611503576040518060200160405280600081525061152e565b8061150d84611958565b60405160200161151e929190612787565b6040516020818303038152906040525b915050919050565b60007f80ac58cd000000000000000000000000000000000000000000000000000000007bffffffffffffffffffffffffffffffffffffffffffffffffffffffff1916827bffffffffffffffffffffffffffffffffffffffffffffffffffffffff1916148061160157507f5b5e139f000000000000000000000000000000000000000000000000000000007bffffffffffffffffffffffffffffffffffffffffffffffffffffffff1916827bffffffffffffffffffffffffffffffffffffffffffffffffffffffff1916145b80611611575061161082611a26565b5b9050919050565b60006004600083815260200190815260200160002060009054906101000a900473ffffffffffffffffffffffffffffffffffffffff169050919050565b808061168e5750600073ffffffffffffffffffffffffffffffffffffffff168273ffffffffffffffffffffffffffffffffffffffff1614155b156117c257600061169e84610c46565b9050600073ffffffffffffffffffffffffffffffffffffffff168373ffffffffffffffffffffffffffffffffffffffff161415801561170957508273ffffffffffffffffffffffffffffffffffffffff168173ffffffffffffffffffffffffffffffffffffffff1614155b801561171c575061171a8184610a63565b155b1561175e57826040517fa9fbf51f0000000000000000000000000000000000000000000000000000000081526004016117559190611fe6565b60405180910390fd5b81156117c057838573ffffffffffffffffffffffffffffffffffffffff168273ffffffffffffffffffffffffffffffffffffffff167f8c5be1e5ebec7d5bd14f71427d1e84f3dd0314c0f7b2291e5b200ac8c7c3b92560405160405180910390a45b505b836006600085815260200190815260200160002060006101000a81548173ffffffffffffffffffffffffffffffffffffffff021916908373ffffffffffffffffffffffffffffffffffffffff16021790555050505050565b611825838383611a90565b6118d957600073ffffffffffffffffffffffffffffffffffffffff168373ffffffffffffffffffffffffffffffffffffffff160361189a57806040517f7e2732890000000000000000000000000000000000000000000000000000000081526004016118919190612138565b60405180910390fd5b81816040517f177e802f0000000000000000000000000000000000000000000000000000000081526004016118d092919061210f565b60405180910390fd5b505050565b6118f8828260405180602001604052806000815250611b51565b5050565b8060086000848152602001908152602001600020908161191c9190612b1e565b507ff8e1a15aba9398e019f0b49df1a4fde98ee17ae345cb5f6b5e2c27f5033e8ce78260405161194c9190612138565b60405180910390a15050565b60606000600161196784611b75565b01905060008167ffffffffffffffff81111561198657611985612185565b5b6040519080825280601f01601f1916602001820160405280156119b85781602001600182028036833780820191505090505b509050600082602001820190505b600115611a1b578080600190039150507f3031323334353637383961626364656600000000000000000000000000000000600a86061a8153600a8581611a0f57611a0e6126bc565b5b049450600085036119c6575b819350505050919050565b60007f01ffc9a7000000000000000000000000000000000000000000000000000000007bffffffffffffffffffffffffffffffffffffffffffffffffffffffff1916827bffffffffffffffffffffffffffffffffffffffffffffffffffffffff1916149050919050565b60008073ffffffffffffffffffffffffffffffffffffffff168373ffffffffffffffffffffffffffffffffffffffff1614158015611b4857508273ffffffffffffffffffffffffffffffffffffffff168473ffffffffffffffffffffffffffffffffffffffff161480611b095750611b088484610a63565b5b80611b4757508273ffffffffffffffffffffffffffffffffffffffff16611b2f83610cce565b73ffffffffffffffffffffffffffffffffffffffff16145b5b90509392505050565b611b5b8383611cc8565b611b70611b66610d0b565b6000858585611305565b505050565b600080600090507a184f03e93ff9f4daa797ed6e38ed64bf6a1f0100000000000000008310611bd3577a184f03e93ff9f4daa797ed6e38ed64bf6a1f0100000000000000008381611bc957611bc86126bc565b5b0492506040810190505b6d04ee2d6d415b85acef81000000008310611c10576d04ee2d6d415b85acef81000000008381611c0657611c056126bc565b5b0492506020810190505b662386f26fc100008310611c3f57662386f26fc100008381611c3557611c346126bc565b5b0492506010810190505b6305f5e1008310611c68576305f5e1008381611c5e57611c5d6126bc565b5b0492506008810190505b6127108310611c8d576127108381611c8357611c826126bc565b5b0492506004810190505b60648310611cb05760648381611ca657611ca56126bc565b5b0492506002810190505b600a8310611cbf576001810190505b80915050919050565b600073ffffffffffffffffffffffffffffffffffffffff168273ffffffffffffffffffffffffffffffffffffffff1603611d3a5760006040517f64a0ae92000000000000000000000000000000000000000000000000000000008152600401611d319190611fe6565b60405180910390fd5b6000611d4883836000610d25565b9050600073ffffffffffffffffffffffffffffffffffffffff168173ffffffffffffffffffffffffffffffffffffffff1614611dbc5760006040517f73c6ac6e000000000000000000000000000000000000000000000000000000008152600401611db39190611fe6565b60405180910390fd5b505050565b6000604051905090565b600080fd5b600080fd5b60007fffffffff0000000000000000000000000000000000000000000000000000000082169050919050565b611e0a81611dd5565b8114611e1557600080fd5b50565b600081359050611e2781611e01565b92915050565b600060208284031215611e4357611e42611dcb565b5b6000611e5184828501611e18565b91505092915050565b60008115159050919050565b611e6f81611e5a565b82525050565b6000602082019050611e8a6000830184611e66565b92915050565b600081519050919050565b600082825260208201905092915050565b60005b83811015611eca578082015181840152602081019050611eaf565b60008484015250505050565b6000601f19601f8301169050919050565b6000611ef282611e90565b611efc8185611e9b565b9350611f0c818560208601611eac565b611f1581611ed6565b840191505092915050565b60006020820190508181036000830152611f3a8184611ee7565b905092915050565b6000819050919050565b611f5581611f42565b8114611f6057600080fd5b50565b600081359050611f7281611f4c565b92915050565b600060208284031215611f8e57611f8d611dcb565b5b6000611f9c84828501611f63565b91505092915050565b600073ffffffffffffffffffffffffffffffffffffffff82169050919050565b6000611fd082611fa5565b9050919050565b611fe081611fc5565b82525050565b6000602082019050611ffb6000830184611fd7565b92915050565b61200a81611fc5565b811461201557600080fd5b50565b60008135905061202781612001565b92915050565b6000806040838503121561204457612043611dcb565b5b600061205285828601612018565b925050602061206385828601611f63565b9150509250929050565b60008060006060848603121561208657612085611dcb565b5b600061209486828701612018565b93505060206120a586828701612018565b92505060406120b686828701611f63565b9150509250925092565b600080604083850312156120d7576120d6611dcb565b5b60006120e585828601611f63565b92505060206120f685828601611f63565b9150509250929050565b61210981611f42565b82525050565b60006040820190506121246000830185611fd7565b6121316020830184612100565b9392505050565b600060208201905061214d6000830184612100565b92915050565b60006020828403121561216957612168611dcb565b5b600061217784828501612018565b91505092915050565b600080fd5b7f4e487b7100000000000000000000000000000000000000000000000000000000600052604160045260246000fd5b6121bd82611ed6565b810181811067ffffffffffffffff821117156121dc576121db612185565b5b80604052505050565b60006121ef611dc1565b90506121fb82826121b4565b919050565b600067ffffffffffffffff82111561221b5761221a612185565b5b602082029050602081019050919050565b600080fd5b600080fd5b600067ffffffffffffffff82111561225157612250612185565b5b61225a82611ed6565b9050602081019050919050565b82818337600083830152505050565b600061228961228484612236565b6121e5565b9050828152602081018484840111156122a5576122a4612231565b5b6122b0848285612267565b509392505050565b600082601f8301126122cd576122cc612180565b5b81356122dd848260208601612276565b91505092915050565b60006122f96122f484612200565b6121e5565b9050808382526020820190506020840283018581111561231c5761231b61222c565b5b835b8181101561236357803567ffffffffffffffff81111561234157612340612180565b5b80860161234e89826122b8565b8552602085019450505060208101905061231e565b5050509392505050565b600082601f83011261238257612381612180565b5b81356123928482602086016122e6565b91505092915050565b6000602082840312156123b1576123b0611dcb565b5b600082013567ffffffffffffffff8111156123cf576123ce611dd0565b5b6123db8482850161236d565b91505092915050565b6123ed81611e5a565b81146123f857600080fd5b50565b60008135905061240a816123e4565b92915050565b6000806040838503121561242757612426611dcb565b5b600061243585828601612018565b9250506020612446858286016123fb565b9150509250929050565b600067ffffffffffffffff82111561246b5761246a612185565b5b61247482611ed6565b9050602081019050919050565b600061249461248f84612450565b6121e5565b9050828152602081018484840111156124b0576124af612231565b5b6124bb848285612267565b509392505050565b600082601f8301126124d8576124d7612180565b5b81356124e8848260208601612481565b91505092915050565b6000806000806080858703121561250b5761250a611dcb565b5b600061251987828801612018565b945050602061252a87828801612018565b935050604061253b87828801611f63565b925050606085013567ffffffffffffffff81111561255c5761255b611dd0565b5b612568878288016124c3565b91505092959194509250565b6000806040838503121561258b5761258a611dcb565b5b600061259985828601612018565b92505060206125aa85828601612018565b9150509250929050565b7f4e487b7100000000000000000000000000000000000000000000000000000000600052602260045260246000fd5b600060028204905060018216806125fb57607f821691505b60208210810361260e5761260d6125b4565b5b50919050565b60006060820190506126296000830186611fd7565b6126366020830185612100565b6126436040830184611fd7565b949350505050565b7f4e487b7100000000000000000000000000000000000000000000000000000000600052601160045260246000fd5b600061268582611f42565b915061269083611f42565b925082820261269e81611f42565b915082820484148315176126b5576126b461264b565b5b5092915050565b7f4e487b7100000000000000000000000000000000000000000000000000000000600052601260045260246000fd5b60006126f682611f42565b915061270183611f42565b925082612711576127106126bc565b5b828204905092915050565b7f4e487b7100000000000000000000000000000000000000000000000000000000600052603260045260246000fd5b600081905092915050565b600061276182611e90565b61276b818561274b565b935061277b818560208601611eac565b80840191505092915050565b60006127938285612756565b915061279f8284612756565b91508190509392505050565b7f526f79616c74792066656520746f6f2068696768000000000000000000000000600082015250565b60006127e1601483611e9b565b91506127ec826127ab565b602082019050919050565b60006020820190508181036000830152612810816127d4565b9050919050565b600061282282611f42565b91507fffffffffffffffffffffffffffffffffffffffffffffffffffffffffffffffff82036128545761285361264b565b5b600182019050919050565b60006040820190506128746000830185612100565b81810360208301526128868184611ee7565b90509392505050565b600081519050919050565b600082825260208201905092915050565b60006128b68261288f565b6128c0818561289a565b93506128d0818560208601611eac565b6128d981611ed6565b840191505092915050565b60006080820190506128f96000830187611fd7565b6129066020830186611fd7565b6129136040830185612100565b818103606083015261292581846128ab565b905095945050505050565b60008151905061293f81611e01565b92915050565b60006020828403121561295b5761295a611dcb565b5b600061296984828501612930565b91505092915050565b60008190508160005260206000209050919050565b60006020601f8301049050919050565b600082821b905092915050565b6000600883026129d47fffffffffffffffffffffffffffffffffffffffffffffffffffffffffffffffff82612997565b6129de8683612997565b95508019841693508086168417925050509392505050565b6000819050919050565b6000612a1b612a16612a1184611f42565b6129f6565b611f42565b9050919050565b6000819050919050565b612a3583612a00565b612a49612a4182612a22565b8484546129a4565b825550505050565b600090565b612a5e612a51565b612a69818484612a2c565b505050565b5b81811015612a8d57612a82600082612a56565b600181019050612a6f565b5050565b601f821115612ad257612aa381612972565b612aac84612987565b81016020851015612abb578190505b612acf612ac785612987565b830182612a6e565b50505b505050565b600082821c905092915050565b6000612af560001984600802612ad7565b1980831691505092915050565b6000612b0e8383612ae4565b9150826002028217905092915050565b612b2782611e90565b67ffffffffffffffff811115612b4057612b3f612185565b5b612b4a82546125e3565b612b55828285612a91565b600060209050601f831160018114612b885760008415612b76578287015190505b612b808582612b02565b865550612be8565b601f198416612b9686612972565b60005b82811015612bbe57848901518255600182019150602085019450602081019050612b99565b86831015612bdb5784890151612bd7601f891682612ae4565b8355505b6001600288020188555050505b50505050505056fea2646970667358221220569df8e700a3465c297854af9f376e22fcb25aca53a9de39707810ef7140a9f964736f6c63430008160033",
  "linkReferences": {},
  "deployedLinkReferences": {}
}